{"abi":[{"type":"constructor","inputs":[],"stateMutability":"nonpayable"},{"type":"function","name":"ADMIN_ROLE","inputs":[],"outputs":[{"name":"","type":"bytes32","internalType":"bytes32"}],"stateMutability":"view"},{"type":"function","name":"DEFAULT_ADMIN_ROLE","inputs":[],"outputs":[{"name":"","type":"bytes32","internalType":"bytes32"}],"stateMutability":"view"},{"type":"function","name":"DST_H1_G1","inputs":[],"outputs":[{"name":"","type":"bytes","internalType":"bytes"}],"stateMutability":"view"},{"type":"function","name":"DST_H2","inputs":[],"outputs":[{"name":"","type":"bytes","internalType":"bytes"}],"stateMutability":"view"},{"type":"function","name":"DST_H3","inputs":[],"outputs":[{"name":"","type":"bytes","internalType":"bytes"}],"stateMutability":"view"},{"type":"function","name":"DST_H4","inputs":[],"outputs":[{"name":"","type":"bytes","internalType":"bytes"}],"stateMutability":"view"},{"type":"function","name":"SCHEME_ID","inputs":[],"outputs":[{"name":"","type":"string","internalType":"string"}],"stateMutability":"view"},{"type":"function","name":"UPGRADE_INTERFACE_VERSION","inputs":[],"outputs":[{"name":"","type":"string","internalType":"string"}],"stateMutability":"view"},{"type":"function","name":"blocklockRequests","inputs":[{"name":"","type":"uint256","internalType":"uint256"}],"outputs":[{"name":"decryptionRequestID","type":"uint256","internalType":"uint256"},{"name":"blockHeight","type":"uint256","internalType":"uint256"},{"name":"ciphertext","type":"tuple","internalType":"struct TypesLib.Ciphertext","components":[{"name":"u","type":"tuple","internalType":"struct BLS.PointG2","components":[{"name":"x","type":"uint256[2]","internalType":"uint256[2]"},{"name":"y","type":"uint256[2]","internalType":"uint256[2]"}]},{"name":"v","type":"bytes","internalType":"bytes"},{"name":"w","type":"bytes","internalType":"bytes"}]},{"name":"signature","type":"bytes","internalType":"bytes"},{"name":"callback","type":"address","internalType":"address"}],"stateMutability":"view"},{"type":"function","name":"decrypt","inputs":[{"name":"ciphertext","type":"tuple","internalType":"struct TypesLib.Ciphertext","components":[{"name":"u","type":"tuple","internalType":"struct BLS.PointG2","components":[{"name":"x","type":"uint256[2]","internalType":"uint256[2]"},{"name":"y","type":"uint256[2]","internalType":"uint256[2]"}]},{"name":"v","type":"bytes","internalType":"bytes"},{"name":"w","type":"bytes","internalType":"bytes"}]},{"name":"decryptionKey","type":"bytes","internalType":"bytes"}],"outputs":[{"name":"","type":"bytes","internalType":"bytes"}],"stateMutability":"view"},{"type":"function","name":"decryptionSender","inputs":[],"outputs":[{"name":"","type":"address","internalType":"contract IDecryptionSender"}],"stateMutability":"view"},{"type":"function","name":"getRequest","inputs":[{"name":"requestID","type":"uint256","internalType":"uint256"}],"outputs":[{"name":"","type":"tuple","internalType":"struct TypesLib.BlocklockRequest","components":[{"name":"decryptionRequestID","type":"uint256","internalType":"uint256"},{"name":"blockHeight","type":"uint256","internalType":"uint256"},{"name":"ciphertext","type":"tuple","internalType":"struct TypesLib.Ciphertext","components":[{"name":"u","type":"tuple","internalType":"struct BLS.PointG2","components":[{"name":"x","type":"uint256[2]","internalType":"uint256[2]"},{"name":"y","type":"uint256[2]","internalType":"uint256[2]"}]},{"name":"v","type":"bytes","internalType":"bytes"},{"name":"w","type":"bytes","internalType":"bytes"}]},{"name":"signature","type":"bytes","internalType":"bytes"},{"name":"callback","type":"address","internalType":"address"}]}],"stateMutability":"view"},{"type":"function","name":"getRoleAdmin","inputs":[{"name":"role","type":"bytes32","internalType":"bytes32"}],"outputs":[{"name":"","type":"bytes32","internalType":"bytes32"}],"stateMutability":"view"},{"type":"function","name":"getRoleMember","inputs":[{"name":"role","type":"bytes32","internalType":"bytes32"},{"name":"index","type":"uint256","internalType":"uint256"}],"outputs":[{"name":"","type":"address","internalType":"address"}],"stateMutability":"view"},{"type":"function","name":"getRoleMemberCount","inputs":[{"name":"role","type":"bytes32","internalType":"bytes32"}],"outputs":[{"name":"","type":"uint256","internalType":"uint256"}],"stateMutability":"view"},{"type":"function","name":"getRoleMembers","inputs":[{"name":"role","type":"bytes32","internalType":"bytes32"}],"outputs":[{"name":"","type":"address[]","internalType":"address[]"}],"stateMutability":"view"},{"type":"function","name":"grantRole","inputs":[{"name":"role","type":"bytes32","internalType":"bytes32"},{"name":"account","type":"address","internalType":"address"}],"outputs":[],"stateMutability":"nonpayable"},{"type":"function","name":"hasRole","inputs":[{"name":"role","type":"bytes32","internalType":"bytes32"},{"name":"account","type":"address","internalType":"address"}],"outputs":[{"name":"","type":"bool","internalType":"bool"}],"stateMutability":"view"},{"type":"function","name":"initialize","inputs":[{"name":"owner","type":"address","internalType":"address"},{"name":"_decryptionSender","type":"address","internalType":"address"}],"outputs":[],"stateMutability":"nonpayable"},{"type":"function","name":"isInFlight","inputs":[{"name":"requestID","type":"uint256","internalType":"uint256"}],"outputs":[{"name":"","type":"bool","internalType":"bool"}],"stateMutability":"view"},{"type":"function","name":"proxiableUUID","inputs":[],"outputs":[{"name":"","type":"bytes32","internalType":"bytes32"}],"stateMutability":"view"},{"type":"function","name":"receiveDecryptionData","inputs":[{"name":"requestID","type":"uint256","internalType":"uint256"},{"name":"decryptionKey","type":"bytes","internalType":"bytes"},{"name":"signature","type":"bytes","internalType":"bytes"}],"outputs":[],"stateMutability":"nonpayable"},{"type":"function","name":"renounceRole","inputs":[{"name":"role","type":"bytes32","internalType":"bytes32"},{"name":"callerConfirmation","type":"address","internalType":"address"}],"outputs":[],"stateMutability":"nonpayable"},{"type":"function","name":"requestBlocklock","inputs":[{"name":"blockHeight","type":"uint256","internalType":"uint256"},{"name":"ciphertext","type":"tuple","internalType":"struct TypesLib.Ciphertext","components":[{"name":"u","type":"tuple","internalType":"struct BLS.PointG2","components":[{"name":"x","type":"uint256[2]","internalType":"uint256[2]"},{"name":"y","type":"uint256[2]","internalType":"uint256[2]"}]},{"name":"v","type":"bytes","internalType":"bytes"},{"name":"w","type":"bytes","internalType":"bytes"}]}],"outputs":[{"name":"","type":"uint256","internalType":"uint256"}],"stateMutability":"nonpayable"},{"type":"function","name":"revokeRole","inputs":[{"name":"role","type":"bytes32","internalType":"bytes32"},{"name":"account","type":"address","internalType":"address"}],"outputs":[],"stateMutability":"nonpayable"},{"type":"function","name":"setDecryptionSender","inputs":[{"name":"newDecryptionSender","type":"address","internalType":"address"}],"outputs":[],"stateMutability":"nonpayable"},{"type":"function","name":"supportsInterface","inputs":[{"name":"interfaceId","type":"bytes4","internalType":"bytes4"}],"outputs":[{"name":"","type":"bool","internalType":"bool"}],"stateMutability":"view"},{"type":"function","name":"upgradeToAndCall","inputs":[{"name":"newImplementation","type":"address","internalType":"address"},{"name":"data","type":"bytes","internalType":"bytes"}],"outputs":[],"stateMutability":"payable"},{"type":"function","name":"version","inputs":[],"outputs":[{"name":"","type":"string","internalType":"string"}],"stateMutability":"pure"},{"type":"event","name":"BlocklockCallbackSuccess","inputs":[{"name":"requestID","type":"uint256","indexed":true,"internalType":"uint256"},{"name":"blockHeight","type":"uint256","indexed":false,"internalType":"uint256"},{"name":"ciphertext","type":"tuple","indexed":false,"internalType":"struct TypesLib.Ciphertext","components":[{"name":"u","type":"tuple","internalType":"struct BLS.PointG2","components":[{"name":"x","type":"uint256[2]","internalType":"uint256[2]"},{"name":"y","type":"uint256[2]","internalType":"uint256[2]"}]},{"name":"v","type":"bytes","internalType":"bytes"},{"name":"w","type":"bytes","internalType":"bytes"}]},{"name":"decryptionKey","type":"bytes","indexed":false,"internalType":"bytes"}],"anonymous":false},{"type":"event","name":"BlocklockRequested","inputs":[{"name":"requestID","type":"uint256","indexed":true,"internalType":"uint256"},{"name":"blockHeight","type":"uint256","indexed":false,"internalType":"uint256"},{"name":"ciphertext","type":"tuple","indexed":false,"internalType":"struct TypesLib.Ciphertext","components":[{"name":"u","type":"tuple","internalType":"struct BLS.PointG2","components":[{"name":"x","type":"uint256[2]","internalType":"uint256[2]"},{"name":"y","type":"uint256[2]","internalType":"uint256[2]"}]},{"name":"v","type":"bytes","internalType":"bytes"},{"name":"w","type":"bytes","internalType":"bytes"}]},{"name":"requester","type":"address","indexed":true,"internalType":"address"},{"name":"requestedAt","type":"uint256","indexed":false,"internalType":"uint256"}],"anonymous":false},{"type":"event","name":"DecryptionSenderUpdated","inputs":[{"name":"decryptionSender","type":"address","indexed":true,"internalType":"address"}],"anonymous":false},{"type":"event","name":"Initialized","inputs":[{"name":"version","type":"uint64","indexed":false,"internalType":"uint64"}],"anonymous":false},{"type":"event","name":"RoleAdminChanged","inputs":[{"name":"role","type":"bytes32","indexed":true,"internalType":"bytes32"},{"name":"previousAdminRole","type":"bytes32","indexed":true,"internalType":"bytes32"},{"name":"newAdminRole","type":"bytes32","indexed":true,"internalType":"bytes32"}],"anonymous":false},{"type":"event","name":"RoleGranted","inputs":[{"name":"role","type":"bytes32","indexed":true,"internalType":"bytes32"},{"name":"account","type":"address","indexed":true,"internalType":"address"},{"name":"sender","type":"address","indexed":true,"internalType":"address"}],"anonymous":false},{"type":"event","name":"RoleRevoked","inputs":[{"name":"role","type":"bytes32","indexed":true,"internalType":"bytes32"},{"name":"account","type":"address","indexed":true,"internalType":"address"},{"name":"sender","type":"address","indexed":true,"internalType":"address"}],"anonymous":false},{"type":"event","name":"Upgraded","inputs":[{"name":"implementation","type":"address","indexed":true,"internalType":"address"}],"anonymous":false},{"type":"error","name":"AccessControlBadConfirmation","inputs":[]},{"type":"error","name":"AccessControlUnauthorizedAccount","inputs":[{"name":"account","type":"address","internalType":"address"},{"name":"neededRole","type":"bytes32","internalType":"bytes32"}]},{"type":"error","name":"AddressEmptyCode","inputs":[{"name":"target","type":"address","internalType":"address"}]},{"type":"error","name":"BlocklockCallbackFailed","inputs":[{"name":"requestID","type":"uint256","internalType":"uint256"}]},{"type":"error","name":"ERC1967InvalidImplementation","inputs":[{"name":"implementation","type":"address","internalType":"address"}]},{"type":"error","name":"ERC1967NonPayable","inputs":[]},{"type":"error","name":"FailedCall","inputs":[]},{"type":"error","name":"InvalidDSTLength","inputs":[{"name":"dst","type":"bytes","internalType":"bytes"}]},{"type":"error","name":"InvalidInitialization","inputs":[]},{"type":"error","name":"NotInitializing","inputs":[]},{"type":"error","name":"UUPSUnauthorizedCallContext","inputs":[]},{"type":"error","name":"UUPSUnsupportedProxiableUUID","inputs":[{"name":"slot","type":"bytes32","internalType":"bytes32"}]}],"bytecode":{"object":"0x60a06040523060805234801562000014575f80fd5b506200001f62000025565b620000d9565b7ff0c57e16840df040f15088dc2f81fe391c3923bec73e23a9662efc9c229c6a00805468010000000000000000900460ff1615620000765760405163f92ee8a960e01b815260040160405180910390fd5b80546001600160401b0390811614620000d65780546001600160401b0319166001600160401b0390811782556040519081527fc7f505b2f371ae2175ee4913f4499e1f2633a7b5936321eed1cdaeb6115181d29060200160405180910390a15b50565b608051614030620001005f395f8181611c5a01528181611c830152611ec001526140305ff3fe6080604052600436106101ba575f3560e01c806367b276af116100f2578063a217fddf11610092578063c9bc18c411610062578063c9bc18c41461060f578063ca15c8731461062e578063cd802c911461064d578063d547741f1461066c575f80fd5b8063a217fddf1461055c578063a3246ad31461056f578063ad3cb1cc1461059b578063c58343ef146105e3575f80fd5b8063826d362b116100cd578063826d362b146104555780638a1f165a146104855780639010d07c146104cd57806391d14854146104ec575f80fd5b806367b276af146103fa5780637350f4561461040e57806375b238fc14610422575f80fd5b806338c27d121161015d5780634f1ef286116101385780634f1ef2861461036f57806352d1902d1461038257806354fd4d50146103965780635d3be001146103db575f80fd5b806338c27d121461031d57806346cd2b4214610331578063485cc95514610350575f80fd5b8063235296f711610198578063235296f714610263578063248a9ca3146102845780632f2ff15d146102df57806336568abe146102fe575f80fd5b806301ffc9a7146101be578063133c40c7146101f25780631e6ba15b14610242575b5f80fd5b3480156101c9575f80fd5b506101dd6101d836600461324e565b61068b565b60405190151581526020015b60405180910390f35b3480156101fd575f80fd5b505f5461021d9073ffffffffffffffffffffffffffffffffffffffff1681565b60405173ffffffffffffffffffffffffffffffffffffffff90911681526020016101e9565b34801561024d575f80fd5b5061026161025c3660046132b5565b6106e6565b005b34801561026e575f80fd5b5061027761077b565b6040516101e99190613339565b34801561028f575f80fd5b506102d161029e36600461334b565b5f9081527f02dd7bc7dec4dceedda775e58dd541e08a116c6c53815c0bd028192f7b626800602052604090206001015490565b6040519081526020016101e9565b3480156102ea575f80fd5b506102616102f9366004613362565b610797565b348015610309575f80fd5b50610261610318366004613362565b6107e0565b348015610328575f80fd5b5061027761083e565b34801561033c575f80fd5b506102d161034b3660046133a2565b61085a565b34801561035b575f80fd5b5061026161036a3660046133e6565b610b90565b61026161037d36600461350b565b610e55565b34801561038d575f80fd5b506102d1610e74565b3480156103a1575f80fd5b5060408051808201909152600581527f302e302e310000000000000000000000000000000000000000000000000000006020820152610277565b3480156103e6575f80fd5b506102616103f536600461358a565b610ea2565b348015610405575f80fd5b50610277610f9b565b348015610419575f80fd5b50610277610fb7565b34801561042d575f80fd5b506102d17fa49807205ce4d355092ef5a8a18f56e8913cf4a201fbe287825b095693c2177581565b348015610460575f80fd5b5061047461046f36600461334b565b610fd3565b6040516101e9959493929190613672565b348015610490575f80fd5b506102776040518060400160405280601381526020017f424e3235342d424c532d424c4f434b4c4f434b0000000000000000000000000081525081565b3480156104d8575f80fd5b5061021d6104e73660046136cb565b611237565b3480156104f7575f80fd5b506101dd610506366004613362565b5f9182527f02dd7bc7dec4dceedda775e58dd541e08a116c6c53815c0bd028192f7b6268006020908152604080842073ffffffffffffffffffffffffffffffffffffffff93909316845291905290205460ff1690565b348015610567575f80fd5b506102d15f81565b34801561057a575f80fd5b5061058e61058936600461334b565b611277565b6040516101e991906136eb565b3480156105a6575f80fd5b506102776040518060400160405280600581526020017f352e302e3000000000000000000000000000000000000000000000000000000081525081565b3480156105ee575f80fd5b506106026105fd36600461334b565b6112ba565b6040516101e99190613744565b34801561061a575f80fd5b506102776106293660046137db565b6115ad565b348015610639575f80fd5b506102d161064836600461334b565b611975565b348015610658575f80fd5b506101dd61066736600461334b565b6119ac565b348015610677575f80fd5b50610261610686366004613362565b611ab1565b5f7fffffffff0000000000000000000000000000000000000000000000000000000082167f5a05180f0000000000000000000000000000000000000000000000000000000014806106e057506106e082611af4565b92915050565b61070f7fa49807205ce4d355092ef5a8a18f56e8913cf4a201fbe287825b095693c21775611b8a565b5f80547fffffffffffffffffffffffff00000000000000000000000000000000000000001673ffffffffffffffffffffffffffffffffffffffff8316908117825560405190917f0dae1d002e96c238ebe140ca1799f77093ae09e0bde40f79bb29ed78d09e652d91a250565b6040518060600160405280602c8152602001613f8b602c913981565b5f8281527f02dd7bc7dec4dceedda775e58dd541e08a116c6c53815c0bd028192f7b62680060205260409020600101546107d081611b8a565b6107da8383611b97565b50505050565b73ffffffffffffffffffffffffffffffffffffffff8116331461082f576040517f6697b23200000000000000000000000000000000000000000000000000000000815260040160405180910390fd5b6108398282611bec565b505050565b604051806060016040528060228152602001613f696022913981565b5f4383116108ef576040517f08c379a000000000000000000000000000000000000000000000000000000000815260206004820152603160248201527f626c6f636b486569676874206d757374206265207374726963746c792067726560448201527f61746572207468616e2063757272656e7400000000000000000000000000000060648201526084015b60405180910390fd5b5f6040518060a001604052805f815260200185815260200184610911906138ca565b815260200160405180602001604052805f81525081526020013373ffffffffffffffffffffffffffffffffffffffff1681525090505f8460405160200161095a91815260200190565b604080517fffffffffffffffffffffffffffffffffffffffffffffffffffffffffffffffe08184030181525f80548484018452601385527f424e3235342d424c532d424c4f434b4c4f434b000000000000000000000000006020868101919091529351929550909373ffffffffffffffffffffffffffffffffffffffff9091169263f87f0e61926109ed918a9101613a64565b604051602081830303815290604052856040518463ffffffff1660e01b8152600401610a1b93929190613a76565b6020604051808303815f875af1158015610a37573d5f803e3d5ffd5b505050506040513d601f19601f82011682018060405250810190610a5b9190613aae565b8084525f8181526001602081815260409283902087518155908701519181019190915590850151805180519394508693600280850192918391610a9f9183916130ed565b506020820151610ab590600280840191906130ed565b50505060208201516004820190610acc9082613b54565b5060408201516005820190610ae19082613b54565b50505060608201516008820190610af89082613b54565b5060809190910151600990910180547fffffffffffffffffffffffff00000000000000000000000000000000000000001673ffffffffffffffffffffffffffffffffffffffff909216919091179055604051339082907f126e74afe6053bc58ebb2677b900753aa56801a8b86023af245885b817dc7c2e90610b7f908a908a904290613c70565b60405180910390a395945050505050565b7ff0c57e16840df040f15088dc2f81fe391c3923bec73e23a9662efc9c229c6a00805468010000000000000000810460ff16159067ffffffffffffffff165f81158015610bda5750825b90505f8267ffffffffffffffff166001148015610bf65750303b155b905081158015610c04575080155b15610c3b576040517ff92ee8a900000000000000000000000000000000000000000000000000000000815260040160405180910390fd5b84547fffffffffffffffffffffffffffffffffffffffffffffffff00000000000000001660011785558315610c9c5784547fffffffffffffffffffffffffffffffffffffffffffffff00ffffffffffffffff16680100000000000000001785555b610ca4611c38565b610cac611c38565b610cd67fa49807205ce4d355092ef5a8a18f56e8913cf4a201fbe287825b095693c2177588611b97565b610d3c576040517f08c379a000000000000000000000000000000000000000000000000000000000815260206004820152601160248201527f4772616e7420726f6c65206661696c656400000000000000000000000000000060448201526064016108e6565b610d465f88611b97565b610dac576040517f08c379a000000000000000000000000000000000000000000000000000000000815260206004820152601160248201527f4772616e7420726f6c65206661696c656400000000000000000000000000000060448201526064016108e6565b5f80547fffffffffffffffffffffffff00000000000000000000000000000000000000001673ffffffffffffffffffffffffffffffffffffffff88161790558315610e4c5784547fffffffffffffffffffffffffffffffffffffffffffffff00ffffffffffffffff168555604051600181527fc7f505b2f371ae2175ee4913f4499e1f2633a7b5936321eed1cdaeb6115181d29060200160405180910390a15b50505050505050565b610e5d611c42565b610e6682611d46565b610e708282611d6f565b5050565b5f610e7d611ea8565b507f360894a13ba1a3210667c828492db98dca3e2076cc3735a920a3ca505d382bbc90565b5f5473ffffffffffffffffffffffffffffffffffffffff163314610f22576040517f08c379a000000000000000000000000000000000000000000000000000000000815260206004820152601e60248201527f4f6e6c792044656372797074696f6e53656e6465722063616e2063616c6c000060448201526064016108e6565b610f948585858080601f0160208091040260200160405190810160405280939291908181526020018383808284375f9201919091525050604080516020601f890181900481028201810190925287815292508791508690819084018382808284375f92019190915250611f1792505050565b5050505050565b604051806060016040528060228152602001613fb76022913981565b604051806060016040528060228152602001613fd96022913981565b600160208190525f918252604091829020805491810154835160e08101948590529293909290600280840191839160608301918491839160a0860191849182845b81548152602001906001019080831161101457505050918352505060408051808201918290526020909201919060028481019182845b81548152602001906001019080831161104a57505050505081525050815260200160048201805461107a90613ac5565b80601f01602080910402602001604051908101604052809291908181526020018280546110a690613ac5565b80156110f15780601f106110c8576101008083540402835291602001916110f1565b820191905f5260205f20905b8154815290600101906020018083116110d457829003601f168201915b5050505050815260200160058201805461110a90613ac5565b80601f016020809104026020016040519081016040528092919081815260200182805461113690613ac5565b80156111815780601f1061115857610100808354040283529160200191611181565b820191905f5260205f20905b81548152906001019060200180831161116457829003601f168201915b5050505050815250509080600801805461119a90613ac5565b80601f01602080910402602001604051908101604052809291908181526020018280546111c690613ac5565b80156112115780601f106111e857610100808354040283529160200191611211565b820191905f5260205f20905b8154815290600101906020018083116111f457829003601f168201915b5050506009909301549192505073ffffffffffffffffffffffffffffffffffffffff1685565b5f8281527fc1f6fe24621ce81ec5827caf0253cadb74709b061630e6b55e8237170593200060208190526040822061126f908461245e565b949350505050565b5f8181527fc1f6fe24621ce81ec5827caf0253cadb74709b061630e6b55e8237170593200060208190526040909120606091906112b390612469565b9392505050565b6112c261312b565b5f828152600160208181526040808420815160a08082018452825482529482015493810193909352815160e08101808452939491939285019290916002808601928492606084019285928492860191849182845b81548152602001906001019080831161131657505050918352505060408051808201918290526020909201919060028481019182845b81548152602001906001019080831161134c57505050505081525050815260200160048201805461137c90613ac5565b80601f01602080910402602001604051908101604052809291908181526020018280546113a890613ac5565b80156113f35780601f106113ca576101008083540402835291602001916113f3565b820191905f5260205f20905b8154815290600101906020018083116113d657829003601f168201915b5050505050815260200160058201805461140c90613ac5565b80601f016020809104026020016040519081016040528092919081815260200182805461143890613ac5565b80156114835780601f1061145a57610100808354040283529160200191611483565b820191905f5260205f20905b81548152906001019060200180831161146657829003601f168201915b50505050508152505081526020016008820180546114a090613ac5565b80601f01602080910402602001604051908101604052809291908181526020018280546114cc90613ac5565b80156115175780601f106114ee57610100808354040283529160200191611517565b820191905f5260205f20905b8154815290600101906020018083116114fa57829003601f168201915b50505091835250506009919091015473ffffffffffffffffffffffffffffffffffffffff1660209091015280519091506106e0576040517f08c379a000000000000000000000000000000000000000000000000000000000815260206004820152601160248201527f696e76616c69642072657175657374494400000000000000000000000000000060448201526064016108e6565b60606115bc6080850185613c98565b905061010003611628576040517f08c379a000000000000000000000000000000000000000000000000000000000815260206004820152601d60248201527f696e76616c69642064656372797074696f6e206b6579206c656e67746800000060448201526064016108e6565b61010061163860a0860186613c98565b9050106116a1576040517f08c379a000000000000000000000000000000000000000000000000000000000815260206004820152601d60248201527f6d657373616765206f6620756e737570706f72746564206c656e67746800000060448201526064016108e6565b5f6116af6080860186613c98565b8080601f0160208091040260200160405190810160405280939291908181526020018383808284375f9201829052509394505050505b8381101561175b578484828181106116ff576116ff613cf9565b9050013560f81c60f81b82828151811061171b5761171b613cf9565b0160200180517fff00000000000000000000000000000000000000000000000000000000000000908116909218909116905f82901a9053506001016116e5565b505f61176a60a0870187613c98565b8080601f0160208091040260200160405190810160405280939291908181526020018383808284375f9201829052506040805160608101909152602280825295965090946117d594509092509050613fb76020830139846117ce60a08b018b613c98565b9050612475565b90505f5b6117e660a0890189613c98565b905081101561185e5781818151811061180157611801613cf9565b602001015160f81c60f81b83828151811061181e5761181e613cf9565b0160200180517fff00000000000000000000000000000000000000000000000000000000000000908116909218909116905f82901a9053506001016117d9565b505f6118a3604051806060016040528060228152602001613fd960229139858560405160200161188f929190613d26565b60405160208183030381529060405261269e565b90505f6118af82612723565b90505f806118cb836118c6368e90038e018e613d54565b6127cf565b909250905060018215158215151414611966576040517f08c379a000000000000000000000000000000000000000000000000000000000815260206004820152602e60248201527f696e76616c69642064656372797074696f6e206b6579202f206369706865727460448201527f657874207265676973746572656400000000000000000000000000000000000060648201526084016108e6565b50939998505050505050505050565b5f8181527fc1f6fe24621ce81ec5827caf0253cadb74709b061630e6b55e823717059320006020819052604082206112b39061293e565b5f8181526001602052604081205480611a21576040517f08c379a000000000000000000000000000000000000000000000000000000000815260206004820152601b60248201527f626c6f636b6c6f636b2072657175657374206e6f7420666f756e64000000000060448201526064016108e6565b5f546040517fcd802c910000000000000000000000000000000000000000000000000000000081526004810183905273ffffffffffffffffffffffffffffffffffffffff9091169063cd802c9190602401602060405180830381865afa158015611a8d573d5f803e3d5ffd5b505050506040513d601f19601f820116820180604052508101906112b39190613d6e565b5f8281527f02dd7bc7dec4dceedda775e58dd541e08a116c6c53815c0bd028192f7b6268006020526040902060010154611aea81611b8a565b6107da8383611bec565b5f7fffffffff0000000000000000000000000000000000000000000000000000000082167f7965db0b0000000000000000000000000000000000000000000000000000000014806106e057507f01ffc9a7000000000000000000000000000000000000000000000000000000007fffffffff000000000000000000000000000000000000000000000000000000008316146106e0565b611b948133612947565b50565b5f7fc1f6fe24621ce81ec5827caf0253cadb74709b061630e6b55e8237170593200081611bc485856129ed565b9050801561126f575f858152602083905260409020611be39085612b0b565b50949350505050565b5f7fc1f6fe24621ce81ec5827caf0253cadb74709b061630e6b55e8237170593200081611c198585612b2c565b9050801561126f575f858152602083905260409020611be39085612c08565b611c40612c29565b565b3073ffffffffffffffffffffffffffffffffffffffff7f0000000000000000000000000000000000000000000000000000000000000000161480611d0f57507f000000000000000000000000000000000000000000000000000000000000000073ffffffffffffffffffffffffffffffffffffffff16611cf67f360894a13ba1a3210667c828492db98dca3e2076cc3735a920a3ca505d382bbc5473ffffffffffffffffffffffffffffffffffffffff1690565b73ffffffffffffffffffffffffffffffffffffffff1614155b15611c40576040517fe07c8dba00000000000000000000000000000000000000000000000000000000815260040160405180910390fd5b611b947fa49807205ce4d355092ef5a8a18f56e8913cf4a201fbe287825b095693c21775611b8a565b8173ffffffffffffffffffffffffffffffffffffffff166352d1902d6040518163ffffffff1660e01b8152600401602060405180830381865afa925050508015611df4575060408051601f3d9081017fffffffffffffffffffffffffffffffffffffffffffffffffffffffffffffffe0168201909252611df191810190613aae565b60015b611e42576040517f4c9c8ce300000000000000000000000000000000000000000000000000000000815273ffffffffffffffffffffffffffffffffffffffff831660048201526024016108e6565b7f360894a13ba1a3210667c828492db98dca3e2076cc3735a920a3ca505d382bbc8114611e9e576040517faa1d49a4000000000000000000000000000000000000000000000000000000008152600481018290526024016108e6565b6108398383612c90565b3073ffffffffffffffffffffffffffffffffffffffff7f00000000000000000000000000000000000000000000000000000000000000001614611c40576040517fe07c8dba00000000000000000000000000000000000000000000000000000000815260040160405180910390fd5b5f838152600160208181526040808420815160a08082018452825482529482015493810193909352815160e08101808452939491939285019290916002808601928492606084019285928492860191849182845b815481526020019060010190808311611f6b57505050918352505060408051808201918290526020909201919060028481019182845b815481526020019060010190808311611fa1575050505050815250508152602001600482018054611fd190613ac5565b80601f0160208091040260200160405190810160405280929190818152602001828054611ffd90613ac5565b80156120485780601f1061201f57610100808354040283529160200191612048565b820191905f5260205f20905b81548152906001019060200180831161202b57829003601f168201915b5050505050815260200160058201805461206190613ac5565b80601f016020809104026020016040519081016040528092919081815260200182805461208d90613ac5565b80156120d85780601f106120af576101008083540402835291602001916120d8565b820191905f5260205f20905b8154815290600101906020018083116120bb57829003601f168201915b50505050508152505081526020016008820180546120f590613ac5565b80601f016020809104026020016040519081016040528092919081815260200182805461212190613ac5565b801561216c5780601f106121435761010080835404028352916020019161216c565b820191905f5260205f20905b81548152906001019060200180831161214f57829003601f168201915b50505091835250506009919091015473ffffffffffffffffffffffffffffffffffffffff166020909101528051909150612228576040517f08c379a000000000000000000000000000000000000000000000000000000000815260206004820152602960248201527f6e6f206d61746368696e6720626c6f636b6c6f636b207265717565737420666f60448201527f722074686174206964000000000000000000000000000000000000000000000060648201526084016108e6565b6060810182905260808101516040515f9173ffffffffffffffffffffffffffffffffffffffff16907f5d94180200000000000000000000000000000000000000000000000000000000906122829088908890602401613d8d565b604080517fffffffffffffffffffffffffffffffffffffffffffffffffffffffffffffffe08184030181529181526020820180517bffffffffffffffffffffffffffffffffffffffffffffffffffffffff167fffffffff0000000000000000000000000000000000000000000000000000000090941693909317909252905161230b9190613da5565b5f604051808303815f865af19150503d805f8114612344576040519150601f19603f3d011682016040523d82523d5f602084013e612349565b606091505b5050905080612387576040517f15083536000000000000000000000000000000000000000000000000000000008152600481018690526024016108e6565b847f33b40097ac8b0a5517c18a7039d9a7aa5c2454fce1aef0eb090c76882533374c83602001518460400151876040516123c393929190613dc0565b60405180910390a25f85815260016020819052604082208281559081018290556002810182815560038201839055600482018390556005820183905590919081612410600685018261315d565b61241d600583015f61315d565b5061242d9050600883015f61315d565b5060090180547fffffffffffffffffffffffff00000000000000000000000000000000000000001690555050505050565b5f6112b38383612cf2565b60605f6112b383612d18565b825160609060ff8111156124b757846040517f26e4f9ba0000000000000000000000000000000000000000000000000000000081526004016108e69190613339565b60408051608880825260c082019092525f916020820181803683370190505090505f81865f875f8b886040516020016124f69796959493929190613dea565b60405160208183030381529060405290505f818051906020012090505f8160018a8760405160200161252b9493929190613e87565b604080517fffffffffffffffffffffffffffffffffffffffffffffffffffffffffffffffe0818403018152919052805160208201209091505f60ff891667ffffffffffffffff8111156125805761258061340e565b6040519080825280601f01601f1916602001820160405280156125aa576020820181803683370190505b5090505f60056125be601f60ff8d16613f15565b901c905060015b81811015612661578584186125db826001613f15565b8e8b6040516020016125f09493929190613e87565b604080518083037fffffffffffffffffffffffffffffffffffffffffffffffffffffffffffffffe001815291905260207fffffffffffffffffffffffffffffffffffffffffffffffffffffffffffffffff8301810285018101959095528051948101949094209394506001016125c5565b507fffffffffffffffffffffffffffffffffffffffffffffffffffffffffffffffff01602090810282010191909152955050505050509392505050565b5f806126ac84846030612475565b6018810151603082015191925077ffffffffffffffffffffffffffffffffffffffffffffffff91821691165f7f30644e72e131a029b85045b68181585d97816a916871ca8d3c208c16d87cfd4783817801000000000000000000000000000000000000000000000000850908979650505050505050565b604080518082019091525f808252602082015261273e613194565b6001815260026020820152604081018390525f60608360808460076107d05a03fa9050806127c8576040517f08c379a000000000000000000000000000000000000000000000000000000000815260206004820152601f60248201527f4731207363616c6172206d756c7469706c69636174696f6e206661696c65640060448201526064016108e6565b5050919050565b5f805f604051806101800160405280865f01518152602001866020015181526020017f198e9393920d483a7260bfb731fb5d25f1aa493335a9e71297e485b7aef312c281526020017f1800deef121f1e76426a00665e5c4479674322d4f75edadd46debd5cd992f6ed81526020017f275dc4a288d1afb3cbb1ac09187524c7db36395df7be3b99e673b13a075a65ec81526020017f1d9befcd05a5323e6da4d435f3b617cdb3af83285c2df711ef39c01571827f9d81526020016001815260200160028152602001855f01516001600281106128ad576128ad613cf9565b60200201518152602001855f01515f600281106128cc576128cc613cf9565b6020020151815260200185602001516001600281106128ed576128ed613cf9565b6020020151815260200185602001515f6002811061290d5761290d613cf9565b60200201519052905061291e6131b2565b6020816101808460086107d05a03fa9051151593509150505b9250929050565b5f6106e0825490565b5f8281527f02dd7bc7dec4dceedda775e58dd541e08a116c6c53815c0bd028192f7b6268006020908152604080832073ffffffffffffffffffffffffffffffffffffffff8516845290915290205460ff16610e70576040517fe2517d3f00000000000000000000000000000000000000000000000000000000815273ffffffffffffffffffffffffffffffffffffffff82166004820152602481018390526044016108e6565b5f8281527f02dd7bc7dec4dceedda775e58dd541e08a116c6c53815c0bd028192f7b6268006020818152604080842073ffffffffffffffffffffffffffffffffffffffff8616855290915282205460ff16612b02575f8481526020828152604080832073ffffffffffffffffffffffffffffffffffffffff87168452909152902080547fffffffffffffffffffffffffffffffffffffffffffffffffffffffffffffff00166001179055612a9e3390565b73ffffffffffffffffffffffffffffffffffffffff168373ffffffffffffffffffffffffffffffffffffffff16857f2f8788117e7eff1d82e926ec794901d17c78024a50270940304540a733656f0d60405160405180910390a460019150506106e0565b5f9150506106e0565b5f6112b38373ffffffffffffffffffffffffffffffffffffffff8416612d71565b5f8281527f02dd7bc7dec4dceedda775e58dd541e08a116c6c53815c0bd028192f7b6268006020818152604080842073ffffffffffffffffffffffffffffffffffffffff8616855290915282205460ff1615612b02575f8481526020828152604080832073ffffffffffffffffffffffffffffffffffffffff8716808552925280832080547fffffffffffffffffffffffffffffffffffffffffffffffffffffffffffffff0016905551339287917ff6391f5c32d9c69d2a47ea670b442974b53935d1edc7fd64eb21e047a839171b9190a460019150506106e0565b5f6112b38373ffffffffffffffffffffffffffffffffffffffff8416612dbd565b7ff0c57e16840df040f15088dc2f81fe391c3923bec73e23a9662efc9c229c6a005468010000000000000000900460ff16611c40576040517fd7e6bcf800000000000000000000000000000000000000000000000000000000815260040160405180910390fd5b612c9982612e97565b60405173ffffffffffffffffffffffffffffffffffffffff8316907fbc7cd75a20ee27fd9adebab32041f755214dbc6bffa90cc0225b39da2e5c2d3b905f90a2805115612cea576108398282612f65565b610e70612fe4565b5f825f018281548110612d0757612d07613cf9565b905f5260205f200154905092915050565b6060815f01805480602002602001604051908101604052809291908181526020018280548015612d6557602002820191905f5260205f20905b815481526020019060010190808311612d51575b50505050509050919050565b5f818152600183016020526040812054612db657508154600181810184555f8481526020808220909301849055845484825282860190935260409020919091556106e0565b505f6106e0565b5f8181526001830160205260408120548015612b02575f612ddf600183613f28565b85549091505f90612df290600190613f28565b9050808214612e51575f865f018281548110612e1057612e10613cf9565b905f5260205f200154905080875f018481548110612e3057612e30613cf9565b5f918252602080832090910192909255918252600188019052604090208390555b8554869080612e6257612e62613f3b565b600190038181905f5260205f20015f90559055856001015f8681526020019081526020015f205f9055600193505050506106e0565b8073ffffffffffffffffffffffffffffffffffffffff163b5f03612eff576040517f4c9c8ce300000000000000000000000000000000000000000000000000000000815273ffffffffffffffffffffffffffffffffffffffff821660048201526024016108e6565b7f360894a13ba1a3210667c828492db98dca3e2076cc3735a920a3ca505d382bbc80547fffffffffffffffffffffffff00000000000000000000000000000000000000001673ffffffffffffffffffffffffffffffffffffffff92909216919091179055565b60605f808473ffffffffffffffffffffffffffffffffffffffff1684604051612f8e9190613da5565b5f60405180830381855af49150503d805f8114612fc6576040519150601f19603f3d011682016040523d82523d5f602084013e612fcb565b606091505b5091509150612fdb85838361301c565b95945050505050565b3415611c40576040517fb398979f00000000000000000000000000000000000000000000000000000000815260040160405180910390fd5b6060826130315761302c826130ab565b6112b3565b8151158015613055575073ffffffffffffffffffffffffffffffffffffffff84163b155b156130a4576040517f9996b31500000000000000000000000000000000000000000000000000000000815273ffffffffffffffffffffffffffffffffffffffff851660048201526024016108e6565b50806112b3565b8051156130bb5780518082602001fd5b6040517fd6bda27500000000000000000000000000000000000000000000000000000000815260040160405180910390fd5b826002810192821561311b579160200282015b8281111561311b578251825591602001919060010190613100565b506131279291506131d0565b5090565b6040518060a001604052805f81526020015f815260200161314a6131e4565b8152606060208201525f60409091015290565b50805461316990613ac5565b5f825580601f10613178575050565b601f0160209004905f5260205f2090810190611b9491906131d0565b60405180606001604052806003906020820280368337509192915050565b60405180602001604052806001906020820280368337509192915050565b5b80821115613127575f81556001016131d1565b60405180606001604052806131f761320b565b815260200160608152602001606081525090565b604051806040016040528061321e613230565b815260200161322b613230565b905290565b60405180604001604052806002906020820280368337509192915050565b5f6020828403121561325e575f80fd5b81357fffffffff00000000000000000000000000000000000000000000000000000000811681146112b3575f80fd5b803573ffffffffffffffffffffffffffffffffffffffff811681146132b0575f80fd5b919050565b5f602082840312156132c5575f80fd5b6112b38261328d565b5f5b838110156132e85781810151838201526020016132d0565b50505f910152565b5f81518084526133078160208601602086016132ce565b601f017fffffffffffffffffffffffffffffffffffffffffffffffffffffffffffffffe0169290920160200192915050565b602081525f6112b360208301846132f0565b5f6020828403121561335b575f80fd5b5035919050565b5f8060408385031215613373575f80fd5b823591506133836020840161328d565b90509250929050565b5f60c0828403121561339c575f80fd5b50919050565b5f80604083850312156133b3575f80fd5b82359150602083013567ffffffffffffffff8111156133d0575f80fd5b6133dc8582860161338c565b9150509250929050565b5f80604083850312156133f7575f80fd5b6134008361328d565b91506133836020840161328d565b7f4e487b71000000000000000000000000000000000000000000000000000000005f52604160045260245ffd5b6040805190810167ffffffffffffffff8111828210171561345e5761345e61340e565b60405290565b5f82601f830112613473575f80fd5b813567ffffffffffffffff8082111561348e5761348e61340e565b604051601f83017fffffffffffffffffffffffffffffffffffffffffffffffffffffffffffffffe0908116603f011681019082821181831017156134d4576134d461340e565b816040528381528660208588010111156134ec575f80fd5b836020870160208301375f602085830101528094505050505092915050565b5f806040838503121561351c575f80fd5b6135258361328d565b9150602083013567ffffffffffffffff811115613540575f80fd5b6133dc85828601613464565b5f8083601f84011261355c575f80fd5b50813567ffffffffffffffff811115613573575f80fd5b602083019150836020828501011115612937575f80fd5b5f805f805f6060868803121561359e575f80fd5b85359450602086013567ffffffffffffffff808211156135bc575f80fd5b6135c889838a0161354c565b909650945060408801359150808211156135e0575f80fd5b506135ed8882890161354c565b969995985093965092949392505050565b805f5b60028110156107da578151845260209384019390910190600101613601565b5f815161362e8482516135fe565b6020015161363f60408501826135fe565b50602082015160c0608085015261365960c08501826132f0565b9050604083015184820360a0860152612fdb82826132f0565b85815284602082015260a060408201525f61369060a0830186613620565b82810360608401526136a281866132f0565b91505073ffffffffffffffffffffffffffffffffffffffff831660808301529695505050505050565b5f80604083850312156136dc575f80fd5b50508035926020909101359150565b602080825282518282018190525f9190848201906040850190845b8181101561373857835173ffffffffffffffffffffffffffffffffffffffff1683529284019291840191600101613706565b50909695505050505050565b6020815281516020820152602082015160408201525f604083015160a0606084015261377360c0840182613620565b905060608401517fffffffffffffffffffffffffffffffffffffffffffffffffffffffffffffffe08483030160808501526137ae82826132f0565b91505073ffffffffffffffffffffffffffffffffffffffff60808501511660a08401528091505092915050565b5f805f604084860312156137ed575f80fd5b833567ffffffffffffffff80821115613804575f80fd5b6138108783880161338c565b94506020860135915080821115613825575f80fd5b506138328682870161354c565b9497909650939450505050565b5f82601f83011261384e575f80fd5b61385661343b565b806040840185811115613867575f80fd5b845b81811015613881578035845260209384019301613869565b509095945050505050565b5f6080828403121561389c575f80fd5b6138a461343b565b90506138b0838361383f565b81526138bf836040840161383f565b602082015292915050565b5f60c082360312156138da575f80fd5b6040516060810167ffffffffffffffff82821081831117156138fe576138fe61340e565b8160405261390c368661388c565b83526080850135915080821115613921575f80fd5b61392d36838701613464565b602084015260a0850135915080821115613945575f80fd5b5061395236828601613464565b60408301525092915050565b5f8083357fffffffffffffffffffffffffffffffffffffffffffffffffffffffffffffffe1843603018112613991575f80fd5b830160208101925035905067ffffffffffffffff8111156139b0575f80fd5b803603821315612937575f80fd5b81835281816020850137505f602082840101525f60207fffffffffffffffffffffffffffffffffffffffffffffffffffffffffffffffe0601f840116840101905092915050565b6040818337604080820160408401375f613a22608083018361395e565b60c06080860152613a3760c0860182846139be565b915050613a4760a084018461395e565b85830360a0870152613a5a8382846139be565b9695505050505050565b602081525f6112b36020830184613a05565b606081525f613a8860608301866132f0565b8281036020840152613a9a81866132f0565b90508281036040840152613a5a81856132f0565b5f60208284031215613abe575f80fd5b5051919050565b600181811c90821680613ad957607f821691505b60208210810361339c577f4e487b71000000000000000000000000000000000000000000000000000000005f52602260045260245ffd5b601f82111561083957805f5260205f20601f840160051c81016020851015613b355750805b601f840160051c820191505b81811015610f94575f8155600101613b41565b815167ffffffffffffffff811115613b6e57613b6e61340e565b613b8281613b7c8454613ac5565b84613b10565b602080601f831160018114613bd4575f8415613b9e5750858301515b7fffffffffffffffffffffffffffffffffffffffffffffffffffffffffffffffff600386901b1c1916600185901b178555613c68565b5f858152602081207fffffffffffffffffffffffffffffffffffffffffffffffffffffffffffffffe08616915b82811015613c2057888601518255948401946001909101908401613c01565b5085821015613c5c57878501517fffffffffffffffffffffffffffffffffffffffffffffffffffffffffffffffff600388901b60f8161c191681555b505060018460011b0185555b505050505050565b838152606060208201525f613c886060830185613a05565b9050826040830152949350505050565b5f8083357fffffffffffffffffffffffffffffffffffffffffffffffffffffffffffffffe1843603018112613ccb575f80fd5b83018035915067ffffffffffffffff821115613ce5575f80fd5b602001915036819003821315612937575f80fd5b7f4e487b71000000000000000000000000000000000000000000000000000000005f52603260045260245ffd5b5f8351613d378184602088016132ce565b835190830190613d4b8183602088016132ce565b01949350505050565b5f60808284031215613d64575f80fd5b6112b3838361388c565b5f60208284031215613d7e575f80fd5b815180151581146112b3575f80fd5b828152604060208201525f61126f60408301846132f0565b5f8251613db68184602087016132ce565b9190910192915050565b838152606060208201525f613dd86060830185613620565b8281036040840152613a5a81856132f0565b5f8851613dfb818460208d016132ce565b885190830190613e0f818360208d016132ce565b8082019150507fff00000000000000000000000000000000000000000000000000000000000000808960f81b168252808860f81b166001830152808760f81b1660028301528551613e67816003850160208a016132ce565b60f89590951b169301600381019390935250506004019695505050505050565b8481525f7fff00000000000000000000000000000000000000000000000000000000000000808660f81b1660208401528451613eca8160218601602089016132ce565b60f89490941b16919092016021810191909152602201949350505050565b7f4e487b71000000000000000000000000000000000000000000000000000000005f52601160045260245ffd5b808201808211156106e0576106e0613ee8565b818103818111156106e0576106e0613ee8565b7f4e487b71000000000000000000000000000000000000000000000000000000005f52603160045260245ffdfe424c4f434b4c4f434b5f424e3235345f584d443a4b454343414b2d3235365f48325f424c4f434b4c4f434b5f424e32353447315f584d443a4b454343414b2d3235365f535644575f524f5f48315f424c4f434b4c4f434b5f424e3235345f584d443a4b454343414b2d3235365f48345f424c4f434b4c4f434b5f424e3235345f584d443a4b454343414b2d3235365f48335fa2646970667358221220adcece1cc5462bf5c1e297fde6ea242acfe378e67696c32d6ee3a6e39b603a1764736f6c63430008180033","linkReferences":{}},"methodIdentifiers":{"ADMIN_ROLE()":"75b238fc","DEFAULT_ADMIN_ROLE()":"a217fddf","DST_H1_G1()":"235296f7","DST_H2()":"38c27d12","DST_H3()":"7350f456","DST_H4()":"67b276af","SCHEME_ID()":"8a1f165a","UPGRADE_INTERFACE_VERSION()":"ad3cb1cc","blocklockRequests(uint256)":"826d362b","decrypt(((uint256[2],uint256[2]),bytes,bytes),bytes)":"c9bc18c4","decryptionSender()":"133c40c7","getRequest(uint256)":"c58343ef","getRoleAdmin(bytes32)":"248a9ca3","getRoleMember(bytes32,uint256)":"9010d07c","getRoleMemberCount(bytes32)":"ca15c873","getRoleMembers(bytes32)":"a3246ad3","grantRole(bytes32,address)":"2f2ff15d","hasRole(bytes32,address)":"91d14854","initialize(address,address)":"485cc955","isInFlight(uint256)":"cd802c91","proxiableUUID()":"52d1902d","receiveDecryptionData(uint256,bytes,bytes)":"5d3be001","renounceRole(bytes32,address)":"36568abe","requestBlocklock(uint256,((uint256[2],uint256[2]),bytes,bytes))":"46cd2b42","revokeRole(bytes32,address)":"d547741f","setDecryptionSender(address)":"1e6ba15b","supportsInterface(bytes4)":"01ffc9a7","upgradeToAndCall(address,bytes)":"4f1ef286","version()":"54fd4d50"},"id":49}