{"abi":[{"type":"constructor","inputs":[],"stateMutability":"nonpayable"},{"type":"function","name":"ADMIN_ROLE","inputs":[],"outputs":[{"name":"","type":"bytes32","internalType":"bytes32"}],"stateMutability":"view"},{"type":"function","name":"DEFAULT_ADMIN_ROLE","inputs":[],"outputs":[{"name":"","type":"bytes32","internalType":"bytes32"}],"stateMutability":"view"},{"type":"function","name":"UPGRADE_INTERFACE_VERSION","inputs":[],"outputs":[{"name":"","type":"string","internalType":"string"}],"stateMutability":"view"},{"type":"function","name":"fulfilDecryptionRequest","inputs":[{"name":"requestID","type":"uint256","internalType":"uint256"},{"name":"decryptionKey","type":"bytes","internalType":"bytes"},{"name":"signature","type":"bytes","internalType":"bytes"}],"outputs":[],"stateMutability":"nonpayable"},{"type":"function","name":"getPublicKey","inputs":[],"outputs":[{"name":"","type":"uint256[2]","internalType":"uint256[2]"},{"name":"","type":"uint256[2]","internalType":"uint256[2]"}],"stateMutability":"view"},{"type":"function","name":"getPublicKeyBytes","inputs":[],"outputs":[{"name":"","type":"bytes","internalType":"bytes"}],"stateMutability":"view"},{"type":"function","name":"getRequestInFlight","inputs":[{"name":"requestID","type":"uint256","internalType":"uint256"}],"outputs":[{"name":"","type":"tuple","internalType":"struct TypesLib.DecryptionRequest","components":[{"name":"schemeID","type":"string","internalType":"string"},{"name":"ciphertext","type":"bytes","internalType":"bytes"},{"name":"condition","type":"bytes","internalType":"bytes"},{"name":"decryptionKey","type":"bytes","internalType":"bytes"},{"name":"signature","type":"bytes","internalType":"bytes"},{"name":"callback","type":"address","internalType":"address"}]}],"stateMutability":"view"},{"type":"function","name":"getRoleAdmin","inputs":[{"name":"role","type":"bytes32","internalType":"bytes32"}],"outputs":[{"name":"","type":"bytes32","internalType":"bytes32"}],"stateMutability":"view"},{"type":"function","name":"getRoleMember","inputs":[{"name":"role","type":"bytes32","internalType":"bytes32"},{"name":"index","type":"uint256","internalType":"uint256"}],"outputs":[{"name":"","type":"address","internalType":"address"}],"stateMutability":"view"},{"type":"function","name":"getRoleMemberCount","inputs":[{"name":"role","type":"bytes32","internalType":"bytes32"}],"outputs":[{"name":"","type":"uint256","internalType":"uint256"}],"stateMutability":"view"},{"type":"function","name":"getRoleMembers","inputs":[{"name":"role","type":"bytes32","internalType":"bytes32"}],"outputs":[{"name":"","type":"address[]","internalType":"address[]"}],"stateMutability":"view"},{"type":"function","name":"grantRole","inputs":[{"name":"role","type":"bytes32","internalType":"bytes32"},{"name":"account","type":"address","internalType":"address"}],"outputs":[],"stateMutability":"nonpayable"},{"type":"function","name":"hasRole","inputs":[{"name":"role","type":"bytes32","internalType":"bytes32"},{"name":"account","type":"address","internalType":"address"}],"outputs":[{"name":"","type":"bool","internalType":"bool"}],"stateMutability":"view"},{"type":"function","name":"initialize","inputs":[{"name":"x","type":"uint256[2]","internalType":"uint256[2]"},{"name":"y","type":"uint256[2]","internalType":"uint256[2]"},{"name":"owner","type":"address","internalType":"address"},{"name":"_signatureSchemeAddressProvider","type":"address","internalType":"address"}],"outputs":[],"stateMutability":"nonpayable"},{"type":"function","name":"isInFlight","inputs":[{"name":"requestID","type":"uint256","internalType":"uint256"}],"outputs":[{"name":"","type":"bool","internalType":"bool"}],"stateMutability":"view"},{"type":"function","name":"lastRequestID","inputs":[],"outputs":[{"name":"","type":"uint256","internalType":"uint256"}],"stateMutability":"view"},{"type":"function","name":"multicall","inputs":[{"name":"data","type":"bytes[]","internalType":"bytes[]"}],"outputs":[{"name":"results","type":"bytes[]","internalType":"bytes[]"}],"stateMutability":"nonpayable"},{"type":"function","name":"proxiableUUID","inputs":[],"outputs":[{"name":"","type":"bytes32","internalType":"bytes32"}],"stateMutability":"view"},{"type":"function","name":"registerCiphertext","inputs":[{"name":"schemeID","type":"string","internalType":"string"},{"name":"ciphertext","type":"bytes","internalType":"bytes"},{"name":"condition","type":"bytes","internalType":"bytes"}],"outputs":[{"name":"","type":"uint256","internalType":"uint256"}],"stateMutability":"nonpayable"},{"type":"function","name":"renounceRole","inputs":[{"name":"role","type":"bytes32","internalType":"bytes32"},{"name":"callerConfirmation","type":"address","internalType":"address"}],"outputs":[],"stateMutability":"nonpayable"},{"type":"function","name":"requestsInFlight","inputs":[{"name":"","type":"uint256","internalType":"uint256"}],"outputs":[{"name":"schemeID","type":"string","internalType":"string"},{"name":"ciphertext","type":"bytes","internalType":"bytes"},{"name":"condition","type":"bytes","internalType":"bytes"},{"name":"decryptionKey","type":"bytes","internalType":"bytes"},{"name":"signature","type":"bytes","internalType":"bytes"},{"name":"callback","type":"address","internalType":"address"}],"stateMutability":"view"},{"type":"function","name":"revokeRole","inputs":[{"name":"role","type":"bytes32","internalType":"bytes32"},{"name":"account","type":"address","internalType":"address"}],"outputs":[],"stateMutability":"nonpayable"},{"type":"function","name":"setSignatureSchemeAddressProvider","inputs":[{"name":"newSignatureSchemeAddressProvider","type":"address","internalType":"address"}],"outputs":[],"stateMutability":"nonpayable"},{"type":"function","name":"signatureSchemeAddressProvider","inputs":[],"outputs":[{"name":"","type":"address","internalType":"contract ISignatureSchemeAddressProvider"}],"stateMutability":"view"},{"type":"function","name":"supportsInterface","inputs":[{"name":"interfaceId","type":"bytes4","internalType":"bytes4"}],"outputs":[{"name":"","type":"bool","internalType":"bool"}],"stateMutability":"view"},{"type":"function","name":"upgradeToAndCall","inputs":[{"name":"newImplementation","type":"address","internalType":"address"},{"name":"data","type":"bytes","internalType":"bytes"}],"outputs":[],"stateMutability":"payable"},{"type":"function","name":"version","inputs":[],"outputs":[{"name":"","type":"string","internalType":"string"}],"stateMutability":"pure"},{"type":"event","name":"DecryptionReceiverCallbackSuccess","inputs":[{"name":"requestID","type":"uint256","indexed":true,"internalType":"uint256"},{"name":"decryptionKey","type":"bytes","indexed":false,"internalType":"bytes"},{"name":"signature","type":"bytes","indexed":false,"internalType":"bytes"}],"anonymous":false},{"type":"event","name":"DecryptionRequested","inputs":[{"name":"requestID","type":"uint256","indexed":true,"internalType":"uint256"},{"name":"callback","type":"address","indexed":true,"internalType":"address"},{"name":"schemeID","type":"string","indexed":false,"internalType":"string"},{"name":"condition","type":"bytes","indexed":false,"internalType":"bytes"},{"name":"ciphertext","type":"bytes","indexed":false,"internalType":"bytes"},{"name":"requestedAt","type":"uint256","indexed":false,"internalType":"uint256"}],"anonymous":false},{"type":"event","name":"Initialized","inputs":[{"name":"version","type":"uint64","indexed":false,"internalType":"uint64"}],"anonymous":false},{"type":"event","name":"RoleAdminChanged","inputs":[{"name":"role","type":"bytes32","indexed":true,"internalType":"bytes32"},{"name":"previousAdminRole","type":"bytes32","indexed":true,"internalType":"bytes32"},{"name":"newAdminRole","type":"bytes32","indexed":true,"internalType":"bytes32"}],"anonymous":false},{"type":"event","name":"RoleGranted","inputs":[{"name":"role","type":"bytes32","indexed":true,"internalType":"bytes32"},{"name":"account","type":"address","indexed":true,"internalType":"address"},{"name":"sender","type":"address","indexed":true,"internalType":"address"}],"anonymous":false},{"type":"event","name":"RoleRevoked","inputs":[{"name":"role","type":"bytes32","indexed":true,"internalType":"bytes32"},{"name":"account","type":"address","indexed":true,"internalType":"address"},{"name":"sender","type":"address","indexed":true,"internalType":"address"}],"anonymous":false},{"type":"event","name":"SignatureSchemeAddressProviderUpdated","inputs":[{"name":"newSignatureSchemeAddressProvider","type":"address","indexed":true,"internalType":"address"}],"anonymous":false},{"type":"event","name":"Upgraded","inputs":[{"name":"implementation","type":"address","indexed":true,"internalType":"address"}],"anonymous":false},{"type":"error","name":"AccessControlBadConfirmation","inputs":[]},{"type":"error","name":"AccessControlUnauthorizedAccount","inputs":[{"name":"account","type":"address","internalType":"address"},{"name":"neededRole","type":"bytes32","internalType":"bytes32"}]},{"type":"error","name":"AddressEmptyCode","inputs":[{"name":"target","type":"address","internalType":"address"}]},{"type":"error","name":"DecryptionReceiverCallbackFailed","inputs":[{"name":"requestID","type":"uint256","internalType":"uint256"}]},{"type":"error","name":"ERC1967InvalidImplementation","inputs":[{"name":"implementation","type":"address","internalType":"address"}]},{"type":"error","name":"ERC1967NonPayable","inputs":[]},{"type":"error","name":"FailedCall","inputs":[]},{"type":"error","name":"InvalidInitialization","inputs":[]},{"type":"error","name":"NotInitializing","inputs":[]},{"type":"error","name":"UUPSUnauthorizedCallContext","inputs":[]},{"type":"error","name":"UUPSUnsupportedProxiableUUID","inputs":[{"name":"slot","type":"bytes32","internalType":"bytes32"}]}],"bytecode":{"object":"0x306080525f80805560e081815261010082905260a08181526101606040526101208381526101409390935260c0929092526001906200004290829060026200012e565b5060208201516200005a90600280840191906200012e565b50505034801562000069575f80fd5b50620000746200007a565b62000187565b7ff0c57e16840df040f15088dc2f81fe391c3923bec73e23a9662efc9c229c6a00805468010000000000000000900460ff1615620000cb5760405163f92ee8a960e01b815260040160405180910390fd5b80546001600160401b03908116146200012b5780546001600160401b0319166001600160401b0390811782556040519081527fc7f505b2f371ae2175ee4913f4499e1f2633a7b5936321eed1cdaeb6115181d29060200160405180910390a15b50565b82600281019282156200015f579160200282015b828111156200015f57825182559160200191906001019062000142565b506200016d92915062000171565b5090565b5b808211156200016d575f815560010162000172565b608051613e7a620001ae5f395f81816124f90152818161252201526127610152613e7a5ff3fe6080604052600436106101a4575f3560e01c80639010d07c116100e7578063bd13269711610087578063d547741f11610062578063d547741f146105bf578063d5c2d4f5146105de578063e6b3ca711461060f578063f87f0e611461063b575f80fd5b8063bd1326971461053a578063ca15c87314610559578063cd802c9114610578575f80fd5b8063a3246ad3116100c2578063a3246ad314610486578063ac9650d8146104b2578063acae9fee146104de578063ad3cb1cc146104f2575f80fd5b80639010d07c146103bf57806391d1485414610403578063a217fddf14610473575f80fd5b806344880e1e1161015257806352d1902d1161012d57806352d1902d1461030b57806354fd4d501461031f578063702ef38c1461036d57806375b238fc1461038c575f80fd5b806344880e1e146102b857806347c03186146102e45780634f1ef286146102f8575f80fd5b80632e334452116101825780632e334452146102585780632f2ff15d1461027a57806336568abe14610299575f80fd5b806301ffc9a7146101a857806316cc9a98146101dc578063248a9ca3146101fd575b5f80fd5b3480156101b3575f80fd5b506101c76101c2366004613192565b61065a565b60405190151581526020015b60405180910390f35b3480156101e7575f80fd5b506101fb6101f63660046131f2565b6106b5565b005b348015610208575f80fd5b5061024a61021736600461320d565b5f9081527f02dd7bc7dec4dceedda775e58dd541e08a116c6c53815c0bd028192f7b626800602052604090206001015490565b6040519081526020016101d3565b348015610263575f80fd5b5061026c61074c565b6040516101d3929190613246565b348015610285575f80fd5b506101fb610294366004613261565b6107c7565b3480156102a4575f80fd5b506101fb6102b3366004613261565b610810565b3480156102c3575f80fd5b506102d76102d236600461320d565b61086e565b6040516101d391906132fa565b3480156102ef575f80fd5b5061024a5f5481565b6101fb610306366004613497565b610bcb565b348015610316575f80fd5b5061024a610bea565b34801561032a575f80fd5b5060408051808201909152600581527f302e302e3100000000000000000000000000000000000000000000000000000060208201525b6040516101d39190613524565b348015610378575f80fd5b506101fb6103873660046135a3565b610c18565b348015610397575f80fd5b5061024a7fa49807205ce4d355092ef5a8a18f56e8913cf4a201fbe287825b095693c2177581565b3480156103ca575f80fd5b506103de6103d93660046135fa565b610f21565b60405173ffffffffffffffffffffffffffffffffffffffff90911681526020016101d3565b34801561040e575f80fd5b506101c761041d366004613261565b5f9182527f02dd7bc7dec4dceedda775e58dd541e08a116c6c53815c0bd028192f7b6268006020908152604080842073ffffffffffffffffffffffffffffffffffffffff93909316845291905290205460ff1690565b34801561047e575f80fd5b5061024a5f81565b348015610491575f80fd5b506104a56104a036600461320d565b610f61565b6040516101d3919061361a565b3480156104bd575f80fd5b506104d16104cc366004613673565b610fa4565b6040516101d391906136e2565b3480156104e9575f80fd5b5061036061108a565b3480156104fd575f80fd5b506103606040518060400160405280600581526020017f352e302e3000000000000000000000000000000000000000000000000000000081525081565b348015610545575f80fd5b506101fb6105543660046137a7565b61110a565b348015610564575f80fd5b5061024a61057336600461320d565b6119a6565b348015610583575f80fd5b506101c761059236600461320d565b5f908152600560208190526040909120015473ffffffffffffffffffffffffffffffffffffffff16151590565b3480156105ca575f80fd5b506101fb6105d9366004613261565b6119dd565b3480156105e9575f80fd5b506105fd6105f836600461320d565b611a20565b6040516101d39695949392919061381b565b34801561061a575f80fd5b506006546103de9073ffffffffffffffffffffffffffffffffffffffff1681565b348015610646575f80fd5b5061024a6106553660046138a5565b611d07565b5f7fffffffff0000000000000000000000000000000000000000000000000000000082167f5a05180f0000000000000000000000000000000000000000000000000000000014806106af57506106af8261239d565b92915050565b6106de7fa49807205ce4d355092ef5a8a18f56e8913cf4a201fbe287825b095693c21775612433565b600680547fffffffffffffffffffffffff00000000000000000000000000000000000000001673ffffffffffffffffffffffffffffffffffffffff83169081179091556040517f7724bcb43a09ae6582affdee2f0ace931e26f2ffa8b5c334baf0a39e9dc03426905f90a250565b6107546130ef565b61075c6130ef565b604080518082019182905260019160039190839060029082845b815481526020019060010190808311610776575050604080518082019182905294965085935060029250905082845b8154815260200190600101908083116107a55750505050509050915091509091565b5f8281527f02dd7bc7dec4dceedda775e58dd541e08a116c6c53815c0bd028192f7b626800602052604090206001015461080081612433565b61080a8383612440565b50505050565b73ffffffffffffffffffffffffffffffffffffffff8116331461085f576040517f6697b23200000000000000000000000000000000000000000000000000000000815260040160405180910390fd5b6108698282612495565b505050565b6108bc6040518060c0016040528060608152602001606081526020016060815260200160608152602001606081526020015f73ffffffffffffffffffffffffffffffffffffffff1681525090565b5f8281526005602052604090819020815160c081019092528054829082906108e390613938565b80601f016020809104026020016040519081016040528092919081815260200182805461090f90613938565b801561095a5780601f106109315761010080835404028352916020019161095a565b820191905f5260205f20905b81548152906001019060200180831161093d57829003601f168201915b5050505050815260200160018201805461097390613938565b80601f016020809104026020016040519081016040528092919081815260200182805461099f90613938565b80156109ea5780601f106109c1576101008083540402835291602001916109ea565b820191905f5260205f20905b8154815290600101906020018083116109cd57829003601f168201915b50505050508152602001600282018054610a0390613938565b80601f0160208091040260200160405190810160405280929190818152602001828054610a2f90613938565b8015610a7a5780601f10610a5157610100808354040283529160200191610a7a565b820191905f5260205f20905b815481529060010190602001808311610a5d57829003601f168201915b50505050508152602001600382018054610a9390613938565b80601f0160208091040260200160405190810160405280929190818152602001828054610abf90613938565b8015610b0a5780601f10610ae157610100808354040283529160200191610b0a565b820191905f5260205f20905b815481529060010190602001808311610aed57829003601f168201915b50505050508152602001600482018054610b2390613938565b80601f0160208091040260200160405190810160405280929190818152602001828054610b4f90613938565b8015610b9a5780601f10610b7157610100808354040283529160200191610b9a565b820191905f5260205f20905b815481529060010190602001808311610b7d57829003601f168201915b50505091835250506005919091015473ffffffffffffffffffffffffffffffffffffffff1660209091015292915050565b610bd36124e1565b610bdc826125e7565b610be68282612610565b5050565b5f610bf3612749565b507f360894a13ba1a3210667c828492db98dca3e2076cc3735a920a3ca505d382bbc90565b7ff0c57e16840df040f15088dc2f81fe391c3923bec73e23a9662efc9c229c6a00805468010000000000000000810460ff16159067ffffffffffffffff165f81158015610c625750825b90505f8267ffffffffffffffff166001148015610c7e5750303b155b905081158015610c8c575080155b15610cc3576040517ff92ee8a900000000000000000000000000000000000000000000000000000000815260040160405180910390fd5b84547fffffffffffffffffffffffffffffffffffffffffffffffff00000000000000001660011785558315610d245784547fffffffffffffffffffffffffffffffffffffffffffffff00ffffffffffffffff16680100000000000000001785555b610d2c6127b8565b610d346127b8565b60408051808201909152898152602081018990526001610d56818c600261310d565b506020820151610d6c906002808401919061310d565b50905050610d9a7fa49807205ce4d355092ef5a8a18f56e8913cf4a201fbe287825b095693c2177588612440565b610e05576040517f08c379a000000000000000000000000000000000000000000000000000000000815260206004820152601160248201527f4772616e7420726f6c65206661696c656400000000000000000000000000000060448201526064015b60405180910390fd5b610e0f5f88612440565b610e75576040517f08c379a000000000000000000000000000000000000000000000000000000000815260206004820152601160248201527f4772616e7420726f6c65206661696c65640000000000000000000000000000006044820152606401610dfc565b600680547fffffffffffffffffffffffff00000000000000000000000000000000000000001673ffffffffffffffffffffffffffffffffffffffff88161790558315610f165784547fffffffffffffffffffffffffffffffffffffffffffffff00ffffffffffffffff168555604051600181527fc7f505b2f371ae2175ee4913f4499e1f2633a7b5936321eed1cdaeb6115181d29060200160405180910390a15b505050505050505050565b5f8281527fc1f6fe24621ce81ec5827caf0253cadb74709b061630e6b55e82371705932000602081905260408220610f5990846127c0565b949350505050565b5f8181527fc1f6fe24621ce81ec5827caf0253cadb74709b061630e6b55e823717059320006020819052604090912060609190610f9d906127cb565b9392505050565b604080515f8152602081019091526060908267ffffffffffffffff811115610fce57610fce6133d6565b60405190808252806020026020018201604052801561100157816020015b6060815260200190600190039081610fec5790505b5091505f5b838110156110825761105d30868684818110611024576110246139c9565b905060200281019061103691906139f6565b8560405160200161104993929190613a57565b6040516020818303038152906040526127d7565b83828151811061106f5761106f6139c9565b6020908102919091010152600101611006565b505092915050565b60408051608081018083526060926111059291600191839190820190839060029082845b8154815260200190600101908083116110ae57505050918352505060408051808201918290526020909201919060028481019182845b8154815260200190600101908083116110e457505050505081525050612856565b905090565b6111337fa49807205ce4d355092ef5a8a18f56e8913cf4a201fbe287825b095693c21775612433565b5f858152600560208190526040909120015473ffffffffffffffffffffffffffffffffffffffff166111e7576040517f08c379a000000000000000000000000000000000000000000000000000000000815260206004820152602360248201527f4e6f20726571756573742077697468207370656369666965642072657175657360448201527f74494400000000000000000000000000000000000000000000000000000000006064820152608401610dfc565b5f85815260056020526040808220815160c0810190925280548290829061120d90613938565b80601f016020809104026020016040519081016040528092919081815260200182805461123990613938565b80156112845780601f1061125b57610100808354040283529160200191611284565b820191905f5260205f20905b81548152906001019060200180831161126757829003601f168201915b5050505050815260200160018201805461129d90613938565b80601f01602080910402602001604051908101604052809291908181526020018280546112c990613938565b80156113145780601f106112eb57610100808354040283529160200191611314565b820191905f5260205f20905b8154815290600101906020018083116112f757829003601f168201915b5050505050815260200160028201805461132d90613938565b80601f016020809104026020016040519081016040528092919081815260200182805461135990613938565b80156113a45780601f1061137b576101008083540402835291602001916113a4565b820191905f5260205f20905b81548152906001019060200180831161138757829003601f168201915b505050505081526020016003820180546113bd90613938565b80601f01602080910402602001604051908101604052809291908181526020018280546113e990613938565b80156114345780601f1061140b57610100808354040283529160200191611434565b820191905f5260205f20905b81548152906001019060200180831161141757829003601f168201915b5050505050815260200160048201805461144d90613938565b80601f016020809104026020016040519081016040528092919081815260200182805461147990613938565b80156114c45780601f1061149b576101008083540402835291602001916114c4565b820191905f5260205f20905b8154815290600101906020018083116114a757829003601f168201915b50505091835250506005919091015473ffffffffffffffffffffffffffffffffffffffff90811660209092019190915281516006546040517f5bb09cf800000000000000000000000000000000000000000000000000000000815293945090925f929190911690635bb09cf89061153f908590600401613524565b602060405180830381865afa15801561155a573d5f803e3d5ffd5b505050506040513d601f19601f8201168201806040525081019061157e9190613a7c565b905073ffffffffffffffffffffffffffffffffffffffff81166115fd576040517f08c379a000000000000000000000000000000000000000000000000000000000815260206004820152600e60248201527f696e76616c696420736368656d650000000000000000000000000000000000006044820152606401610dfc565b60408084015190517feae1e15b00000000000000000000000000000000000000000000000000000000815282915f9173ffffffffffffffffffffffffffffffffffffffff84169163eae1e15b916116579190600401613524565b5f60405180830381865afa158015611671573d5f803e3d5ffd5b505050506040513d5f823e601f3d9081017fffffffffffffffffffffffffffffffffffffffffffffffffffffffffffffffe01682016040526116b69190810190613a97565b90508173ffffffffffffffffffffffffffffffffffffffff1663f6e548e98289896116df61108a565b6040518563ffffffff1660e01b81526004016116fe9493929190613b47565b602060405180830381865afa158015611719573d5f803e3d5ffd5b505050506040513d601f19601f8201168201806040525081019061173d9190613b8b565b6117a3576040517f08c379a000000000000000000000000000000000000000000000000000000000815260206004820152601d60248201527f5369676e617475726520766572696669636174696f6e206661696c65640000006044820152606401610dfc565b5f8560a0015173ffffffffffffffffffffffffffffffffffffffff16635d3be00160e01b8c8c8c8c8c6040516024016117e0959493929190613baa565b604080517fffffffffffffffffffffffffffffffffffffffffffffffffffffffffffffffe08184030181529181526020820180517bffffffffffffffffffffffffffffffffffffffffffffffffffffffff167fffffffff000000000000000000000000000000000000000000000000000000009094169390931790925290516118699190613be2565b5f604051808303815f865af19150503d805f81146118a2576040519150601f19603f3d011682016040523d82523d5f602084013e6118a7565b606091505b50509050806118e5576040517f3fed05c5000000000000000000000000000000000000000000000000000000008152600481018c9052602401610dfc565b8a7f0a1f5b3782d8f604353407c980dbfe6b55499c5b92cb8c39f089c73f348407e68b8b8b8b60405161191b9493929190613bfd565b60405180910390a25f8b81526005602052604081209061193b828261314b565b611948600183015f61314b565b611955600283015f61314b565b611962600383015f61314b565b61196f600483015f61314b565b5060050180547fffffffffffffffffffffffff00000000000000000000000000000000000000001690555050505050505050505050565b5f8181527fc1f6fe24621ce81ec5827caf0253cadb74709b061630e6b55e82371705932000602081905260408220610f9d906128b2565b5f8281527f02dd7bc7dec4dceedda775e58dd541e08a116c6c53815c0bd028192f7b6268006020526040902060010154611a1681612433565b61080a8383612495565b60056020525f9081526040902080548190611a3a90613938565b80601f0160208091040260200160405190810160405280929190818152602001828054611a6690613938565b8015611ab15780601f10611a8857610100808354040283529160200191611ab1565b820191905f5260205f20905b815481529060010190602001808311611a9457829003601f168201915b505050505090806001018054611ac690613938565b80601f0160208091040260200160405190810160405280929190818152602001828054611af290613938565b8015611b3d5780601f10611b1457610100808354040283529160200191611b3d565b820191905f5260205f20905b815481529060010190602001808311611b2057829003601f168201915b505050505090806002018054611b5290613938565b80601f0160208091040260200160405190810160405280929190818152602001828054611b7e90613938565b8015611bc95780601f10611ba057610100808354040283529160200191611bc9565b820191905f5260205f20905b815481529060010190602001808311611bac57829003601f168201915b505050505090806003018054611bde90613938565b80601f0160208091040260200160405190810160405280929190818152602001828054611c0a90613938565b8015611c555780601f10611c2c57610100808354040283529160200191611c55565b820191905f5260205f20905b815481529060010190602001808311611c3857829003601f168201915b505050505090806004018054611c6a90613938565b80601f0160208091040260200160405190810160405280929190818152602001828054611c9690613938565b8015611ce15780601f10611cb857610100808354040283529160200191611ce1565b820191905f5260205f20905b815481529060010190602001808311611cc457829003601f168201915b5050506005909301549192505073ffffffffffffffffffffffffffffffffffffffff1686565b5f60015f80828254611d199190613c23565b90915550506006546040517f2fc9fa3300000000000000000000000000000000000000000000000000000000815273ffffffffffffffffffffffffffffffffffffffff90911690632fc9fa3390611d76908a908a90600401613c36565b602060405180830381865afa158015611d91573d5f803e3d5ffd5b505050506040513d601f19601f82011682018060405250810190611db59190613b8b565b611e1b576040517f08c379a000000000000000000000000000000000000000000000000000000000815260206004820152601e60248201527f5369676e617475726520736368656d65206e6f7420737570706f7274656400006044820152606401610dfc565b611e62600161100087878080601f0160208091040260200160405190810160405280939291908181526020018383808284375f920191909152509294939250506128bb9050565b611eee576040517f08c379a000000000000000000000000000000000000000000000000000000000815260206004820152602260248201527f4d657373616765206661696c6564206c656e67746820626f756e64732063686560448201527f636b0000000000000000000000000000000000000000000000000000000000006064820152608401610dfc565b611f345f61100085858080601f0160208091040260200160405190810160405280939291908181526020018383808284375f920191909152509294939250506128bb9050565b611fbf576040517f08c379a0000000000000000000000000000000000000000000000000000000008152602060048201526024808201527f436f6e646974696f6e206661696c6564206c656e67746820626f756e6473206360448201527f6865636b000000000000000000000000000000000000000000000000000000006064820152608401610dfc565b8180156120915761200484848080601f0160208091040260200160405190810160405280939291908181526020018383808284375f9201919091525061296592505050565b15612091576040517f08c379a000000000000000000000000000000000000000000000000000000000815260206004820152602360248201527f436f6e646974696f6e2062797465732063616e6e6f7420626520616c6c207a6560448201527f726f7300000000000000000000000000000000000000000000000000000000006064820152608401610dfc565b6006546040517f5bb09cf80000000000000000000000000000000000000000000000000000000081525f9173ffffffffffffffffffffffffffffffffffffffff1690635bb09cf8906120e9908c908c90600401613c36565b602060405180830381865afa158015612104573d5f803e3d5ffd5b505050506040513d601f19601f820116820180604052508101906121289190613a7c565b905073ffffffffffffffffffffffffffffffffffffffff81166121a7576040517f08c379a000000000000000000000000000000000000000000000000000000000815260206004820152601860248201527f696e76616c6964207369676e617475726520736368656d6500000000000000006044820152606401610dfc565b6040518060c001604052808a8a8080601f0160208091040260200160405190810160405280939291908181526020018383808284375f92019190915250505090825250604080516020601f8b0181900481028201810190925289815291810191908a908a90819084018382808284375f92019190915250505090825250604080516020601f8901819004810282018101909252878152918101919088908890819084018382808284375f92018290525093855250506040805160208181018352848252808601919091528151808201835284815282860152336060909501949094528254835260059093525020815181906122a29082613c94565b50602082015160018201906122b79082613c94565b50604082015160028201906122cc9082613c94565b50606082015160038201906122e19082613c94565b50608082015160048201906122f69082613c94565b5060a09190910151600590910180547fffffffffffffffffffffffff00000000000000000000000000000000000000001673ffffffffffffffffffffffffffffffffffffffff9092169190911790555f546040513391907f133b1acfa49920f88bc8c23faeb2ba43b75b3d6c453290a824f3c85e7733df1390612386908d908d908b908b908f908f904290613db0565b60405180910390a350505f54979650505050505050565b5f7fffffffff0000000000000000000000000000000000000000000000000000000082167f7965db0b0000000000000000000000000000000000000000000000000000000014806106af57507f01ffc9a7000000000000000000000000000000000000000000000000000000007fffffffff000000000000000000000000000000000000000000000000000000008316146106af565b61243d81336129c8565b50565b5f7fc1f6fe24621ce81ec5827caf0253cadb74709b061630e6b55e823717059320008161246d8585612a6e565b90508015610f59575f85815260208390526040902061248c9085612b8c565b50949350505050565b5f7fc1f6fe24621ce81ec5827caf0253cadb74709b061630e6b55e82371705932000816124c28585612bad565b90508015610f59575f85815260208390526040902061248c9085612c89565b3073ffffffffffffffffffffffffffffffffffffffff7f00000000000000000000000000000000000000000000000000000000000000001614806125ae57507f000000000000000000000000000000000000000000000000000000000000000073ffffffffffffffffffffffffffffffffffffffff166125957f360894a13ba1a3210667c828492db98dca3e2076cc3735a920a3ca505d382bbc5473ffffffffffffffffffffffffffffffffffffffff1690565b73ffffffffffffffffffffffffffffffffffffffff1614155b156125e5576040517fe07c8dba00000000000000000000000000000000000000000000000000000000815260040160405180910390fd5b565b61243d7fa49807205ce4d355092ef5a8a18f56e8913cf4a201fbe287825b095693c21775612433565b8173ffffffffffffffffffffffffffffffffffffffff166352d1902d6040518163ffffffff1660e01b8152600401602060405180830381865afa925050508015612695575060408051601f3d9081017fffffffffffffffffffffffffffffffffffffffffffffffffffffffffffffffe016820190925261269291810190613e00565b60015b6126e3576040517f4c9c8ce300000000000000000000000000000000000000000000000000000000815273ffffffffffffffffffffffffffffffffffffffff83166004820152602401610dfc565b7f360894a13ba1a3210667c828492db98dca3e2076cc3735a920a3ca505d382bbc811461273f576040517faa1d49a400000000000000000000000000000000000000000000000000000000815260048101829052602401610dfc565b6108698383612caa565b3073ffffffffffffffffffffffffffffffffffffffff7f000000000000000000000000000000000000000000000000000000000000000016146125e5576040517fe07c8dba00000000000000000000000000000000000000000000000000000000815260040160405180910390fd5b6125e5612d0c565b5f610f9d8383612d73565b60605f610f9d83612d99565b60605f808473ffffffffffffffffffffffffffffffffffffffff16846040516128009190613be2565b5f60405180830381855af49150503d805f8114612838576040519150601f19603f3d011682016040523d82523d5f602084013e61283d565b606091505b509150915061284d858383612df2565b95945050505050565b60408051608080825260a082019092526060915f91906020820181803683375050845180516020918201519682015180519083015192850191909152604084019690965260608301959095525060808101939093525090919050565b5f6106af825490565b5f8183111561294c576040517f08c379a000000000000000000000000000000000000000000000000000000000815260206004820152603a60248201527f496e76616c696420626f756e64733a206d696e4c656e6774682063616e6e6f7460448201527f2062652067726561746572207468616e206d61784c656e6774680000000000006064820152608401610dfc565b835183811080159061284d575091909111159392505050565b5f805b82518110156129bf57828181518110612983576129836139c9565b01602001517fff0000000000000000000000000000000000000000000000000000000000000016156129b757505f92915050565b600101612968565b50600192915050565b5f8281527f02dd7bc7dec4dceedda775e58dd541e08a116c6c53815c0bd028192f7b6268006020908152604080832073ffffffffffffffffffffffffffffffffffffffff8516845290915290205460ff16610be6576040517fe2517d3f00000000000000000000000000000000000000000000000000000000815273ffffffffffffffffffffffffffffffffffffffff8216600482015260248101839052604401610dfc565b5f8281527f02dd7bc7dec4dceedda775e58dd541e08a116c6c53815c0bd028192f7b6268006020818152604080842073ffffffffffffffffffffffffffffffffffffffff8616855290915282205460ff16612b83575f8481526020828152604080832073ffffffffffffffffffffffffffffffffffffffff87168452909152902080547fffffffffffffffffffffffffffffffffffffffffffffffffffffffffffffff00166001179055612b1f3390565b73ffffffffffffffffffffffffffffffffffffffff168373ffffffffffffffffffffffffffffffffffffffff16857f2f8788117e7eff1d82e926ec794901d17c78024a50270940304540a733656f0d60405160405180910390a460019150506106af565b5f9150506106af565b5f610f9d8373ffffffffffffffffffffffffffffffffffffffff8416612e81565b5f8281527f02dd7bc7dec4dceedda775e58dd541e08a116c6c53815c0bd028192f7b6268006020818152604080842073ffffffffffffffffffffffffffffffffffffffff8616855290915282205460ff1615612b83575f8481526020828152604080832073ffffffffffffffffffffffffffffffffffffffff8716808552925280832080547fffffffffffffffffffffffffffffffffffffffffffffffffffffffffffffff0016905551339287917ff6391f5c32d9c69d2a47ea670b442974b53935d1edc7fd64eb21e047a839171b9190a460019150506106af565b5f610f9d8373ffffffffffffffffffffffffffffffffffffffff8416612ecd565b612cb382612fa7565b60405173ffffffffffffffffffffffffffffffffffffffff8316907fbc7cd75a20ee27fd9adebab32041f755214dbc6bffa90cc0225b39da2e5c2d3b905f90a2805115612d045761086982826127d7565b610be6613075565b7ff0c57e16840df040f15088dc2f81fe391c3923bec73e23a9662efc9c229c6a005468010000000000000000900460ff166125e5576040517fd7e6bcf800000000000000000000000000000000000000000000000000000000815260040160405180910390fd5b5f825f018281548110612d8857612d886139c9565b905f5260205f200154905092915050565b6060815f01805480602002602001604051908101604052809291908181526020018280548015612de657602002820191905f5260205f20905b815481526020019060010190808311612dd2575b50505050509050919050565b606082612e0757612e02826130ad565b610f9d565b8151158015612e2b575073ffffffffffffffffffffffffffffffffffffffff84163b155b15612e7a576040517f9996b31500000000000000000000000000000000000000000000000000000000815273ffffffffffffffffffffffffffffffffffffffff85166004820152602401610dfc565b5080610f9d565b5f818152600183016020526040812054612ec657508154600181810184555f8481526020808220909301849055845484825282860190935260409020919091556106af565b505f6106af565b5f8181526001830160205260408120548015612b83575f612eef6001836139b6565b85549091505f90612f02906001906139b6565b9050808214612f61575f865f018281548110612f2057612f206139c9565b905f5260205f200154905080875f018481548110612f4057612f406139c9565b5f918252602080832090910192909255918252600188019052604090208390555b8554869080612f7257612f72613e17565b600190038181905f5260205f20015f90559055856001015f8681526020019081526020015f205f9055600193505050506106af565b8073ffffffffffffffffffffffffffffffffffffffff163b5f0361300f576040517f4c9c8ce300000000000000000000000000000000000000000000000000000000815273ffffffffffffffffffffffffffffffffffffffff82166004820152602401610dfc565b7f360894a13ba1a3210667c828492db98dca3e2076cc3735a920a3ca505d382bbc80547fffffffffffffffffffffffff00000000000000000000000000000000000000001673ffffffffffffffffffffffffffffffffffffffff92909216919091179055565b34156125e5576040517fb398979f00000000000000000000000000000000000000000000000000000000815260040160405180910390fd5b8051156130bd5780518082602001fd5b6040517fd6bda27500000000000000000000000000000000000000000000000000000000815260040160405180910390fd5b60405180604001604052806002906020820280368337509192915050565b826002810192821561313b579160200282015b8281111561313b578251825591602001919060010190613120565b5061314792915061317e565b5090565b50805461315790613938565b5f825580601f10613166575050565b601f0160209004905f5260205f209081019061243d91905b5b80821115613147575f815560010161317f565b5f602082840312156131a2575f80fd5b81357fffffffff0000000000000000000000000000000000000000000000000000000081168114610f9d575f80fd5b73ffffffffffffffffffffffffffffffffffffffff8116811461243d575f80fd5b5f60208284031215613202575f80fd5b8135610f9d816131d1565b5f6020828403121561321d575f80fd5b5035919050565b805f5b600281101561080a578151845260209384019390910190600101613227565b608081016132548285613224565b610f9d6040830184613224565b5f8060408385031215613272575f80fd5b823591506020830135613284816131d1565b809150509250929050565b5f5b838110156132a9578181015183820152602001613291565b50505f910152565b5f81518084526132c881602086016020860161328f565b601f017fffffffffffffffffffffffffffffffffffffffffffffffffffffffffffffffe0169290920160200192915050565b602081525f825160c0602084015261331560e08401826132b1565b905060208401517fffffffffffffffffffffffffffffffffffffffffffffffffffffffffffffffe08085840301604086015261335183836132b1565b9250604086015191508085840301606086015261336e83836132b1565b9250606086015191508085840301608086015261338b83836132b1565b925060808601519150808584030160a0860152506133a982826132b1565b91505073ffffffffffffffffffffffffffffffffffffffff60a08501511660c08401528091505092915050565b7f4e487b71000000000000000000000000000000000000000000000000000000005f52604160045260245ffd5b604051601f82017fffffffffffffffffffffffffffffffffffffffffffffffffffffffffffffffe016810167ffffffffffffffff8111828210171561344a5761344a6133d6565b604052919050565b5f67ffffffffffffffff82111561346b5761346b6133d6565b50601f017fffffffffffffffffffffffffffffffffffffffffffffffffffffffffffffffe01660200190565b5f80604083850312156134a8575f80fd5b82356134b3816131d1565b9150602083013567ffffffffffffffff8111156134ce575f80fd5b8301601f810185136134de575f80fd5b80356134f16134ec82613452565b613403565b818152866020838501011115613505575f80fd5b816020840160208301375f602083830101528093505050509250929050565b602081525f610f9d60208301846132b1565b5f82601f830112613545575f80fd5b6040516040810181811067ffffffffffffffff82111715613568576135686133d6565b806040525080604084018581111561357e575f80fd5b845b81811015613598578035835260209283019201613580565b509195945050505050565b5f805f8060c085870312156135b6575f80fd5b6135c08686613536565b93506135cf8660408701613536565b925060808501356135df816131d1565b915060a08501356135ef816131d1565b939692955090935050565b5f806040838503121561360b575f80fd5b50508035926020909101359150565b602080825282518282018190525f9190848201906040850190845b8181101561366757835173ffffffffffffffffffffffffffffffffffffffff1683529284019291840191600101613635565b50909695505050505050565b5f8060208385031215613684575f80fd5b823567ffffffffffffffff8082111561369b575f80fd5b818501915085601f8301126136ae575f80fd5b8135818111156136bc575f80fd5b8660208260051b85010111156136d0575f80fd5b60209290920196919550909350505050565b5f60208083016020845280855180835260408601915060408160051b8701019250602087015f5b82811015613755577fffffffffffffffffffffffffffffffffffffffffffffffffffffffffffffffc08886030184526137438583516132b1565b94509285019290850190600101613709565b5092979650505050505050565b5f8083601f840112613772575f80fd5b50813567ffffffffffffffff811115613789575f80fd5b6020830191508360208285010111156137a0575f80fd5b9250929050565b5f805f805f606086880312156137bb575f80fd5b85359450602086013567ffffffffffffffff808211156137d9575f80fd5b6137e589838a01613762565b909650945060408801359150808211156137fd575f80fd5b5061380a88828901613762565b969995985093965092949392505050565b60c081525f61382d60c08301896132b1565b828103602084015261383f81896132b1565b9050828103604084015261385381886132b1565b9050828103606084015261386781876132b1565b9050828103608084015261387b81866132b1565b91505073ffffffffffffffffffffffffffffffffffffffff831660a0830152979650505050505050565b5f805f805f80606087890312156138ba575f80fd5b863567ffffffffffffffff808211156138d1575f80fd5b6138dd8a838b01613762565b909850965060208901359150808211156138f5575f80fd5b6139018a838b01613762565b90965094506040890135915080821115613919575f80fd5b5061392689828a01613762565b979a9699509497509295939492505050565b600181811c9082168061394c57607f821691505b602082108103613983577f4e487b71000000000000000000000000000000000000000000000000000000005f52602260045260245ffd5b50919050565b7f4e487b71000000000000000000000000000000000000000000000000000000005f52601160045260245ffd5b818103818111156106af576106af613989565b7f4e487b71000000000000000000000000000000000000000000000000000000005f52603260045260245ffd5b5f8083357fffffffffffffffffffffffffffffffffffffffffffffffffffffffffffffffe1843603018112613a29575f80fd5b83018035915067ffffffffffffffff821115613a43575f80fd5b6020019150368190038213156137a0575f80fd5b828482375f8382015f81528351613a7281836020880161328f565b0195945050505050565b5f60208284031215613a8c575f80fd5b8151610f9d816131d1565b5f60208284031215613aa7575f80fd5b815167ffffffffffffffff811115613abd575f80fd5b8201601f81018413613acd575f80fd5b8051613adb6134ec82613452565b818152856020838501011115613aef575f80fd5b61284d82602083016020860161328f565b81835281816020850137505f602082840101525f60207fffffffffffffffffffffffffffffffffffffffffffffffffffffffffffffffe0601f840116840101905092915050565b606081525f613b5960608301876132b1565b8281036020840152613b6c818688613b00565b90508281036040840152613b8081856132b1565b979650505050505050565b5f60208284031215613b9b575f80fd5b81518015158114610f9d575f80fd5b858152606060208201525f613bc3606083018688613b00565b8281036040840152613bd6818587613b00565b98975050505050505050565b5f8251613bf381846020870161328f565b9190910192915050565b604081525f613c10604083018688613b00565b8281036020840152613b80818587613b00565b808201808211156106af576106af613989565b602081525f610f59602083018486613b00565b601f82111561086957805f5260205f20601f840160051c81016020851015613c6e5750805b601f840160051c820191505b81811015613c8d575f8155600101613c7a565b5050505050565b815167ffffffffffffffff811115613cae57613cae6133d6565b613cc281613cbc8454613938565b84613c49565b602080601f831160018114613d14575f8415613cde5750858301515b7fffffffffffffffffffffffffffffffffffffffffffffffffffffffffffffffff600386901b1c1916600185901b178555613da8565b5f858152602081207fffffffffffffffffffffffffffffffffffffffffffffffffffffffffffffffe08616915b82811015613d6057888601518255948401946001909101908401613d41565b5085821015613d9c57878501517fffffffffffffffffffffffffffffffffffffffffffffffffffffffffffffffff600388901b60f8161c191681555b505060018460011b0185555b505050505050565b608081525f613dc360808301898b613b00565b8281036020840152613dd681888a613b00565b90508281036040840152613deb818688613b00565b91505082606083015298975050505050505050565b5f60208284031215613e10575f80fd5b5051919050565b7f4e487b71000000000000000000000000000000000000000000000000000000005f52603160045260245ffdfea264697066735822122066ed8ce2bd31f98267556cb8c833c0607383e5e06130589c63d731a5a7940b1664736f6c63430008180033","linkReferences":{}},"methodIdentifiers":{"ADMIN_ROLE()":"75b238fc","DEFAULT_ADMIN_ROLE()":"a217fddf","UPGRADE_INTERFACE_VERSION()":"ad3cb1cc","fulfilDecryptionRequest(uint256,bytes,bytes)":"bd132697","getPublicKey()":"2e334452","getPublicKeyBytes()":"acae9fee","getRequestInFlight(uint256)":"44880e1e","getRoleAdmin(bytes32)":"248a9ca3","getRoleMember(bytes32,uint256)":"9010d07c","getRoleMemberCount(bytes32)":"ca15c873","getRoleMembers(bytes32)":"a3246ad3","grantRole(bytes32,address)":"2f2ff15d","hasRole(bytes32,address)":"91d14854","initialize(uint256[2],uint256[2],address,address)":"702ef38c","isInFlight(uint256)":"cd802c91","lastRequestID()":"47c03186","multicall(bytes[])":"ac9650d8","proxiableUUID()":"52d1902d","registerCiphertext(string,bytes,bytes)":"f87f0e61","renounceRole(bytes32,address)":"36568abe","requestsInFlight(uint256)":"d5c2d4f5","revokeRole(bytes32,address)":"d547741f","setSignatureSchemeAddressProvider(address)":"16cc9a98","signatureSchemeAddressProvider()":"e6b3ca71","supportsInterface(bytes4)":"01ffc9a7","upgradeToAndCall(address,bytes)":"4f1ef286","version()":"54fd4d50"},"id":52}