{"abi":[{"type":"constructor","inputs":[{"name":"x","type":"uint256[2]","internalType":"uint256[2]"},{"name":"y","type":"uint256[2]","internalType":"uint256[2]"},{"name":"owner","type":"address","internalType":"address"},{"name":"_signatureSchemeAddressProvider","type":"address","internalType":"address"}],"stateMutability":"nonpayable"},{"type":"function","name":"ADMIN_ROLE","inputs":[],"outputs":[{"name":"","type":"bytes32","internalType":"bytes32"}],"stateMutability":"view"},{"type":"function","name":"DEFAULT_ADMIN_ROLE","inputs":[],"outputs":[{"name":"","type":"bytes32","internalType":"bytes32"}],"stateMutability":"view"},{"type":"function","name":"fulfilSignatureRequest","inputs":[{"name":"requestID","type":"uint256","internalType":"uint256"},{"name":"signature","type":"bytes","internalType":"bytes"}],"outputs":[],"stateMutability":"nonpayable"},{"type":"function","name":"getPublicKey","inputs":[],"outputs":[{"name":"","type":"uint256[2]","internalType":"uint256[2]"},{"name":"","type":"uint256[2]","internalType":"uint256[2]"}],"stateMutability":"view"},{"type":"function","name":"getPublicKeyBytes","inputs":[],"outputs":[{"name":"","type":"bytes","internalType":"bytes"}],"stateMutability":"view"},{"type":"function","name":"getRequestInFlight","inputs":[{"name":"requestID","type":"uint256","internalType":"uint256"}],"outputs":[{"name":"","type":"tuple","internalType":"struct TypesLib.SignatureRequest","components":[{"name":"message","type":"bytes","internalType":"bytes"},{"name":"messageHash","type":"bytes","internalType":"bytes"},{"name":"condition","type":"bytes","internalType":"bytes"},{"name":"schemeID","type":"string","internalType":"string"},{"name":"callback","type":"address","internalType":"address"}]}],"stateMutability":"view"},{"type":"function","name":"getRoleAdmin","inputs":[{"name":"role","type":"bytes32","internalType":"bytes32"}],"outputs":[{"name":"","type":"bytes32","internalType":"bytes32"}],"stateMutability":"view"},{"type":"function","name":"grantRole","inputs":[{"name":"role","type":"bytes32","internalType":"bytes32"},{"name":"account","type":"address","internalType":"address"}],"outputs":[],"stateMutability":"nonpayable"},{"type":"function","name":"hasRole","inputs":[{"name":"role","type":"bytes32","internalType":"bytes32"},{"name":"account","type":"address","internalType":"address"}],"outputs":[{"name":"","type":"bool","internalType":"bool"}],"stateMutability":"view"},{"type":"function","name":"isInFlight","inputs":[{"name":"requestID","type":"uint256","internalType":"uint256"}],"outputs":[{"name":"","type":"bool","internalType":"bool"}],"stateMutability":"view"},{"type":"function","name":"lastRequestID","inputs":[],"outputs":[{"name":"","type":"uint256","internalType":"uint256"}],"stateMutability":"view"},{"type":"function","name":"multicall","inputs":[{"name":"data","type":"bytes[]","internalType":"bytes[]"}],"outputs":[{"name":"results","type":"bytes[]","internalType":"bytes[]"}],"stateMutability":"nonpayable"},{"type":"function","name":"renounceRole","inputs":[{"name":"role","type":"bytes32","internalType":"bytes32"},{"name":"callerConfirmation","type":"address","internalType":"address"}],"outputs":[],"stateMutability":"nonpayable"},{"type":"function","name":"requestSignature","inputs":[{"name":"schemeID","type":"string","internalType":"string"},{"name":"message","type":"bytes","internalType":"bytes"},{"name":"condition","type":"bytes","internalType":"bytes"}],"outputs":[{"name":"","type":"uint256","internalType":"uint256"}],"stateMutability":"nonpayable"},{"type":"function","name":"requestsInFlight","inputs":[{"name":"","type":"uint256","internalType":"uint256"}],"outputs":[{"name":"message","type":"bytes","internalType":"bytes"},{"name":"messageHash","type":"bytes","internalType":"bytes"},{"name":"condition","type":"bytes","internalType":"bytes"},{"name":"schemeID","type":"string","internalType":"string"},{"name":"callback","type":"address","internalType":"address"}],"stateMutability":"view"},{"type":"function","name":"revokeRole","inputs":[{"name":"role","type":"bytes32","internalType":"bytes32"},{"name":"account","type":"address","internalType":"address"}],"outputs":[],"stateMutability":"nonpayable"},{"type":"function","name":"signatureSchemeAddressProvider","inputs":[],"outputs":[{"name":"","type":"address","internalType":"contract ISignatureSchemeAddressProvider"}],"stateMutability":"view"},{"type":"function","name":"supportsInterface","inputs":[{"name":"interfaceId","type":"bytes4","internalType":"bytes4"}],"outputs":[{"name":"","type":"bool","internalType":"bool"}],"stateMutability":"view"},{"type":"event","name":"RoleAdminChanged","inputs":[{"name":"role","type":"bytes32","indexed":true,"internalType":"bytes32"},{"name":"previousAdminRole","type":"bytes32","indexed":true,"internalType":"bytes32"},{"name":"newAdminRole","type":"bytes32","indexed":true,"internalType":"bytes32"}],"anonymous":false},{"type":"event","name":"RoleGranted","inputs":[{"name":"role","type":"bytes32","indexed":true,"internalType":"bytes32"},{"name":"account","type":"address","indexed":true,"internalType":"address"},{"name":"sender","type":"address","indexed":true,"internalType":"address"}],"anonymous":false},{"type":"event","name":"RoleRevoked","inputs":[{"name":"role","type":"bytes32","indexed":true,"internalType":"bytes32"},{"name":"account","type":"address","indexed":true,"internalType":"address"},{"name":"sender","type":"address","indexed":true,"internalType":"address"}],"anonymous":false},{"type":"event","name":"SignatureRequestFulfilled","inputs":[{"name":"requestID","type":"uint256","indexed":true,"internalType":"uint256"}],"anonymous":false},{"type":"event","name":"SignatureRequested","inputs":[{"name":"requestID","type":"uint256","indexed":true,"internalType":"uint256"},{"name":"callback","type":"address","indexed":true,"internalType":"address"},{"name":"schemeID","type":"string","indexed":false,"internalType":"string"},{"name":"message","type":"bytes","indexed":false,"internalType":"bytes"},{"name":"messageHashToSign","type":"bytes","indexed":false,"internalType":"bytes"},{"name":"condition","type":"bytes","indexed":false,"internalType":"bytes"},{"name":"requestedAt","type":"uint256","indexed":false,"internalType":"uint256"}],"anonymous":false},{"type":"error","name":"AccessControlBadConfirmation","inputs":[]},{"type":"error","name":"AccessControlUnauthorizedAccount","inputs":[{"name":"account","type":"address","internalType":"address"},{"name":"neededRole","type":"bytes32","internalType":"bytes32"}]},{"type":"error","name":"AddressEmptyCode","inputs":[{"name":"target","type":"address","internalType":"address"}]},{"type":"error","name":"FailedCall","inputs":[]},{"type":"error","name":"SignatureCallbackFailed","inputs":[{"name":"requestID","type":"uint256","internalType":"uint256"}]}],"bytecode":{"object":"0x5f600181905560e081815261010082905260a08181526101606040526101208381526101409390935260c0929092526002906200003f90829081620002ca565b506020820151620000579060028084019190620002ca565b50505034801562000066575f80fd5b5060405162002d1338038062002d138339810160408190526200008991620003bc565b60408051808201909152848152602081018490526002620000ac818781620002ca565b506020820151620000c49060028084019190620002ca565b50620000f591507fa49807205ce4d355092ef5a8a18f56e8913cf4a201fbe287825b095693c217759050836200021e565b6200013b5760405162461bcd60e51b815260206004820152601160248201527011dc985b9d081c9bdb194819985a5b1959607a1b60448201526064015b60405180910390fd5b620001475f836200021e565b6200018a5760405162461bcd60e51b81526020600482015260126024820152714772616e7420726f6c65207265766572747360701b604482015260640162000132565b6001600160a01b038116620002085760405162461bcd60e51b815260206004820152603c60248201527f43616e6e6f7420736574207a65726f2061646472657373206173207369676e6160448201527f7475726520736368656d6520616464726573732070726f766964657200000000606482015260840162000132565b6001600160a01b03166080525062000418915050565b5f828152602081815260408083206001600160a01b038516845290915281205460ff16620002c1575f838152602081815260408083206001600160a01b03861684529091529020805460ff19166001179055620002783390565b6001600160a01b0316826001600160a01b0316847f2f8788117e7eff1d82e926ec794901d17c78024a50270940304540a733656f0d60405160405180910390a4506001620002c4565b505f5b92915050565b8260028101928215620002fb579160200282015b82811115620002fb578251825591602001919060010190620002de565b50620003099291506200030d565b5090565b5b8082111562000309575f81556001016200030e565b5f82601f83011262000333575f80fd5b604080519081016001600160401b03811182821017156200036257634e487b7160e01b5f52604160045260245ffd5b806040525080604084018581111562000379575f80fd5b845b81811015620003955780518352602092830192016200037b565b509195945050505050565b80516001600160a01b0381168114620003b7575f80fd5b919050565b5f805f8060c08587031215620003d0575f80fd5b620003dc868662000323565b9350620003ed866040870162000323565b9250620003fd60808601620003a0565b91506200040d60a08601620003a0565b905092959194509250565b6080516128cd620004465f395f818161033401528181610b6b01528181610f03015261129401526128cd5ff3fe608060405234801561000f575f80fd5b506004361061012f575f3560e01c806391d14854116100ad578063acae9fee1161007d578063d547741f11610063578063d547741f146102f8578063d5c2d4f51461030b578063e6b3ca711461032f575f80fd5b8063acae9fee146102a9578063cd802c91146102be575f80fd5b806391d148541461022c57806395b8d0731461026f578063a217fddf14610282578063ac9650d814610289575f80fd5b806336568abe1161010257806347c03186116100e857806347c03186146101e95780635eab2b20146101f257806375b238fc14610205575f80fd5b806336568abe146101b657806344880e1e146101c9575f80fd5b806301ffc9a714610133578063248a9ca31461015b5780632e3344521461018b5780632f2ff15d146101a1575b5f80fd5b610146610141366004611ee9565b61037b565b60405190151581526020015b60405180910390f35b61017d610169366004611f28565b5f9081526020819052604090206001015490565b604051908152602001610152565b610193610413565b604051610152929190611f61565b6101b46101af366004611f9d565b61048d565b005b6101b46101c4366004611f9d565b6104b7565b6101dc6101d7366004611f28565b610515565b6040516101529190612036565b61017d60015481565b6101b461020036600461213a565b6107db565b61017d7fa49807205ce4d355092ef5a8a18f56e8913cf4a201fbe287825b095693c2177581565b61014661023a366004611f9d565b5f9182526020828152604080842073ffffffffffffffffffffffffffffffffffffffff93909316845291905290205460ff1690565b61017d61027d366004612182565b610eaf565b61017d5f81565b61029c610297366004612215565b611598565b6040516101529190612284565b6102b161167e565b6040516101529190612304565b6101466102cc366004611f28565b5f9081526006602052604090206004015473ffffffffffffffffffffffffffffffffffffffff16151590565b6101b4610306366004611f9d565b6116fd565b61031e610319366004611f28565b611721565b604051610152959493929190612316565b6103567f000000000000000000000000000000000000000000000000000000000000000081565b60405173ffffffffffffffffffffffffffffffffffffffff9091168152602001610152565b5f7fffffffff0000000000000000000000000000000000000000000000000000000082167f7965db0b00000000000000000000000000000000000000000000000000000000148061040d57507f01ffc9a7000000000000000000000000000000000000000000000000000000007fffffffff000000000000000000000000000000000000000000000000000000008316145b92915050565b61041b611e81565b610423611e81565b6040805180820191829052600291600491908390819081845b81548152602001906001019080831161043c575050604080518082019182905294965085935060029250905082845b81548152602001906001019080831161046b5750505050509050915091509091565b5f828152602081905260409020600101546104a78161197c565b6104b18383611989565b50505050565b73ffffffffffffffffffffffffffffffffffffffff81163314610506576040517f6697b23200000000000000000000000000000000000000000000000000000000815260040160405180910390fd5b6105108282611a82565b505050565b61055c6040518060a00160405280606081526020016060815260200160608152602001606081526020015f73ffffffffffffffffffffffffffffffffffffffff1681525090565b5f8281526006602052604090819020815160a081019092528054829082906105839061238b565b80601f01602080910402602001604051908101604052809291908181526020018280546105af9061238b565b80156105fa5780601f106105d1576101008083540402835291602001916105fa565b820191905f5260205f20905b8154815290600101906020018083116105dd57829003601f168201915b505050505081526020016001820180546106139061238b565b80601f016020809104026020016040519081016040528092919081815260200182805461063f9061238b565b801561068a5780601f106106615761010080835404028352916020019161068a565b820191905f5260205f20905b81548152906001019060200180831161066d57829003601f168201915b505050505081526020016002820180546106a39061238b565b80601f01602080910402602001604051908101604052809291908181526020018280546106cf9061238b565b801561071a5780601f106106f15761010080835404028352916020019161071a565b820191905f5260205f20905b8154815290600101906020018083116106fd57829003601f168201915b505050505081526020016003820180546107339061238b565b80601f016020809104026020016040519081016040528092919081815260200182805461075f9061238b565b80156107aa5780601f10610781576101008083540402835291602001916107aa565b820191905f5260205f20905b81548152906001019060200180831161078d57829003601f168201915b50505091835250506004919091015473ffffffffffffffffffffffffffffffffffffffff1660209091015292915050565b6108047fa49807205ce4d355092ef5a8a18f56e8913cf4a201fbe287825b095693c2177561197c565b5f8381526006602052604090206004015473ffffffffffffffffffffffffffffffffffffffff166108bc576040517f08c379a000000000000000000000000000000000000000000000000000000000815260206004820152602360248201527f4e6f20726571756573742077697468207370656369666965642072657175657360448201527f744944000000000000000000000000000000000000000000000000000000000060648201526084015b60405180910390fd5b5f83815260066020526040808220815160a081019092528054829082906108e29061238b565b80601f016020809104026020016040519081016040528092919081815260200182805461090e9061238b565b80156109595780601f1061093057610100808354040283529160200191610959565b820191905f5260205f20905b81548152906001019060200180831161093c57829003601f168201915b505050505081526020016001820180546109729061238b565b80601f016020809104026020016040519081016040528092919081815260200182805461099e9061238b565b80156109e95780601f106109c0576101008083540402835291602001916109e9565b820191905f5260205f20905b8154815290600101906020018083116109cc57829003601f168201915b50505050508152602001600282018054610a029061238b565b80601f0160208091040260200160405190810160405280929190818152602001828054610a2e9061238b565b8015610a795780601f10610a5057610100808354040283529160200191610a79565b820191905f5260205f20905b815481529060010190602001808311610a5c57829003601f168201915b50505050508152602001600382018054610a929061238b565b80601f0160208091040260200160405190810160405280929190818152602001828054610abe9061238b565b8015610b095780601f10610ae057610100808354040283529160200191610b09565b820191905f5260205f20905b815481529060010190602001808311610aec57829003601f168201915b505050918352505060049182015473ffffffffffffffffffffffffffffffffffffffff90811660209092019190915260608301516040517f5bb09cf8000000000000000000000000000000000000000000000000000000008152939450925f927f000000000000000000000000000000000000000000000000000000000000000090921691635bb09cf891610ba091869101612304565b602060405180830381865afa158015610bbb573d5f803e3d5ffd5b505050506040513d601f19601f82011682018060405250810190610bdf91906123dc565b90505f8190508073ffffffffffffffffffffffffffffffffffffffff1663f6e548e985602001518888610c1061167e565b6040518563ffffffff1660e01b8152600401610c2f949392919061243e565b602060405180830381865afa158015610c4a573d5f803e3d5ffd5b505050506040513d601f19601f82011682018060405250810190610c6e9190612482565b610cd4576040517f08c379a000000000000000000000000000000000000000000000000000000000815260206004820152601d60248201527f5369676e617475726520766572696669636174696f6e206661696c656400000060448201526064016108b3565b5f846080015173ffffffffffffffffffffffffffffffffffffffff1663c8db658260e01b898989604051602401610d0d939291906124a1565b604080517fffffffffffffffffffffffffffffffffffffffffffffffffffffffffffffffe08184030181529181526020820180517bffffffffffffffffffffffffffffffffffffffffffffffffffffffff167fffffffff00000000000000000000000000000000000000000000000000000000909416939093179092529051610d9691906124ba565b5f604051808303815f865af19150503d805f8114610dcf576040519150601f19603f3d011682016040523d82523d5f602084013e610dd4565b606091505b5050905080610e12576040517fb4474744000000000000000000000000000000000000000000000000000000008152600481018990526024016108b3565b60405188907fd4ea4684d3a92e95520ada379d1fd257a1e354567964ffd985b5f28c5940e7ab905f90a25f88815260066020526040812090610e548282611e9f565b610e61600183015f611e9f565b610e6e600283015f611e9f565b610e7b600383015f611e9f565b5060040180547fffffffffffffffffffffffff00000000000000000000000000000000000000001690555050505050505050565b5f6001805f828254610ec19190612502565b90915550506040517f2fc9fa3300000000000000000000000000000000000000000000000000000000815273ffffffffffffffffffffffffffffffffffffffff7f00000000000000000000000000000000000000000000000000000000000000001690632fc9fa3390610f3a908a908a90600401612515565b602060405180830381865afa158015610f55573d5f803e3d5ffd5b505050506040513d601f19601f82011682018060405250810190610f799190612482565b610fdf576040517f08c379a000000000000000000000000000000000000000000000000000000000815260206004820152601e60248201527f5369676e617475726520736368656d65206e6f7420737570706f72746564000060448201526064016108b3565b611026600161100087878080601f0160208091040260200160405190810160405280939291908181526020018383808284375f92019190915250929493925050611b3b9050565b6110b2576040517f08c379a000000000000000000000000000000000000000000000000000000000815260206004820152602260248201527f4d657373616765206661696c6564206c656e67746820626f756e64732063686560448201527f636b00000000000000000000000000000000000000000000000000000000000060648201526084016108b3565b6110f85f61100085858080601f0160208091040260200160405190810160405280939291908181526020018383808284375f92019190915250929493925050611b3b9050565b611183576040517f08c379a0000000000000000000000000000000000000000000000000000000008152602060048201526024808201527f436f6e646974696f6e206661696c6564206c656e67746820626f756e6473206360448201527f6865636b0000000000000000000000000000000000000000000000000000000060648201526084016108b3565b818015611255576111c884848080601f0160208091040260200160405190810160405280939291908181526020018383808284375f92019190915250611be992505050565b15611255576040517f08c379a000000000000000000000000000000000000000000000000000000000815260206004820152602360248201527f436f6e646974696f6e2062797465732063616e6e6f7420626520616c6c207a6560448201527f726f73000000000000000000000000000000000000000000000000000000000060648201526084016108b3565b6040517f5bb09cf80000000000000000000000000000000000000000000000000000000081525f9073ffffffffffffffffffffffffffffffffffffffff7f00000000000000000000000000000000000000000000000000000000000000001690635bb09cf8906112cb908c908c90600401612515565b602060405180830381865afa1580156112e6573d5f803e3d5ffd5b505050506040513d601f19601f8201168201806040525081019061130a91906123dc565b6040517feae1e15b00000000000000000000000000000000000000000000000000000000815290915081905f9073ffffffffffffffffffffffffffffffffffffffff83169063eae1e15b90611365908c908c90600401612515565b5f60405180830381865afa15801561137f573d5f803e3d5ffd5b505050506040513d5f823e601f3d9081017fffffffffffffffffffffffffffffffffffffffffffffffffffffffffffffffe01682016040526113c4919081019061255d565b6040805160c06020601f8d01819004028201810190925260a081018b81529293509182918c908c90819085018382808284375f92019190915250505090825250602080820184905260408051601f8b0183900483028101830182528a8152920191908a908a90819084018382808284375f92019190915250505090825250604080516020601f8f018190048102820181019092528d815291810191908e908e90819084018382808284375f9201829052509385525050336020938401525060015481526006909152604090208151819061149e9082612663565b50602082015160018201906114b39082612663565b50604082015160028201906114c89082612663565b50606082015160038201906114dd9082612663565b506080820151816004015f6101000a81548173ffffffffffffffffffffffffffffffffffffffff021916908373ffffffffffffffffffffffffffffffffffffffff1602179055509050503373ffffffffffffffffffffffffffffffffffffffff166001547ff0a5ef4bc87d6534674b1469f4b31d03c6510d0f7ab353f3e53f9d1d87ead02b8d8d8d8d878e8e4260405161157e98979695949392919061277f565b60405180910390a350506001549998505050505050505050565b604080515f8152602081019091526060908267ffffffffffffffff8111156115c2576115c2612530565b6040519080825280602002602001820160405280156115f557816020015b60608152602001906001900390816115e05790505b5091505f5b838110156116765761165130868684818110611618576116186127e4565b905060200281019061162a9190612811565b8560405160200161163d93929190612872565b604051602081830303815290604052611c4c565b838281518110611663576116636127e4565b60209081029190910101526001016115fa565b505092915050565b60408051608081018083526060926116f892916002918391908201908390819081845b8154815260200190600101908083116116a157505050918352505060408051808201918290526020909201919060028481019182845b8154815260200190600101908083116116d757505050505081525050611ccb565b905090565b5f828152602081905260409020600101546117178161197c565b6104b18383611a82565b60066020525f908152604090208054819061173b9061238b565b80601f01602080910402602001604051908101604052809291908181526020018280546117679061238b565b80156117b25780601f10611789576101008083540402835291602001916117b2565b820191905f5260205f20905b81548152906001019060200180831161179557829003601f168201915b5050505050908060010180546117c79061238b565b80601f01602080910402602001604051908101604052809291908181526020018280546117f39061238b565b801561183e5780601f106118155761010080835404028352916020019161183e565b820191905f5260205f20905b81548152906001019060200180831161182157829003601f168201915b5050505050908060020180546118539061238b565b80601f016020809104026020016040519081016040528092919081815260200182805461187f9061238b565b80156118ca5780601f106118a1576101008083540402835291602001916118ca565b820191905f5260205f20905b8154815290600101906020018083116118ad57829003601f168201915b5050505050908060030180546118df9061238b565b80601f016020809104026020016040519081016040528092919081815260200182805461190b9061238b565b80156119565780601f1061192d57610100808354040283529160200191611956565b820191905f5260205f20905b81548152906001019060200180831161193957829003601f168201915b5050506004909301549192505073ffffffffffffffffffffffffffffffffffffffff1685565b6119868133611d27565b50565b5f8281526020818152604080832073ffffffffffffffffffffffffffffffffffffffff8516845290915281205460ff16611a7b575f8381526020818152604080832073ffffffffffffffffffffffffffffffffffffffff86168452909152902080547fffffffffffffffffffffffffffffffffffffffffffffffffffffffffffffff00166001179055611a193390565b73ffffffffffffffffffffffffffffffffffffffff168273ffffffffffffffffffffffffffffffffffffffff16847f2f8788117e7eff1d82e926ec794901d17c78024a50270940304540a733656f0d60405160405180910390a450600161040d565b505f61040d565b5f8281526020818152604080832073ffffffffffffffffffffffffffffffffffffffff8516845290915281205460ff1615611a7b575f8381526020818152604080832073ffffffffffffffffffffffffffffffffffffffff8616808552925280832080547fffffffffffffffffffffffffffffffffffffffffffffffffffffffffffffff0016905551339286917ff6391f5c32d9c69d2a47ea670b442974b53935d1edc7fd64eb21e047a839171b9190a450600161040d565b5f81831115611bcc576040517f08c379a000000000000000000000000000000000000000000000000000000000815260206004820152603a60248201527f496e76616c696420626f756e64733a206d696e4c656e6774682063616e6e6f7460448201527f2062652067726561746572207468616e206d61784c656e67746800000000000060648201526084016108b3565b8351838110801590611bde5750828111155b9150505b9392505050565b5f805b8251811015611c4357828181518110611c0757611c076127e4565b01602001517fff000000000000000000000000000000000000000000000000000000000000001615611c3b57505f92915050565b600101611bec565b50600192915050565b60605f808473ffffffffffffffffffffffffffffffffffffffff1684604051611c7591906124ba565b5f60405180830381855af49150503d805f8114611cad576040519150601f19603f3d011682016040523d82523d5f602084013e611cb2565b606091505b5091509150611cc2858383611db0565b95945050505050565b60408051608080825260a082019092526060915f91906020820181803683375050845180516020918201519682015180519083015192850191909152604084019690965260608301959095525060808101939093525090919050565b5f8281526020818152604080832073ffffffffffffffffffffffffffffffffffffffff8516845290915290205460ff16611dac576040517fe2517d3f00000000000000000000000000000000000000000000000000000000815273ffffffffffffffffffffffffffffffffffffffff82166004820152602481018390526044016108b3565b5050565b606082611dc557611dc082611e3f565b611be2565b8151158015611de9575073ffffffffffffffffffffffffffffffffffffffff84163b155b15611e38576040517f9996b31500000000000000000000000000000000000000000000000000000000815273ffffffffffffffffffffffffffffffffffffffff851660048201526024016108b3565b5080611be2565b805115611e4f5780518082602001fd5b6040517fd6bda27500000000000000000000000000000000000000000000000000000000815260040160405180910390fd5b60405180604001604052806002906020820280368337509192915050565b508054611eab9061238b565b5f825580601f10611eba575050565b601f0160209004905f5260205f209081019061198691905b80821115611ee5575f8155600101611ed2565b5090565b5f60208284031215611ef9575f80fd5b81357fffffffff0000000000000000000000000000000000000000000000000000000081168114611be2575f80fd5b5f60208284031215611f38575f80fd5b5035919050565b805f5b60028110156104b1578151845260209384019390910190600101611f42565b60808101611f6f8285611f3f565b611be26040830184611f3f565b73ffffffffffffffffffffffffffffffffffffffff81168114611986575f80fd5b5f8060408385031215611fae575f80fd5b823591506020830135611fc081611f7c565b809150509250929050565b5f5b83811015611fe5578181015183820152602001611fcd565b50505f910152565b5f8151808452612004816020860160208601611fcb565b601f017fffffffffffffffffffffffffffffffffffffffffffffffffffffffffffffffe0169290920160200192915050565b602081525f825160a0602084015261205160c0840182611fed565b905060208401517fffffffffffffffffffffffffffffffffffffffffffffffffffffffffffffffe08085840301604086015261208d8383611fed565b925060408601519150808584030160608601526120aa8383611fed565b92506060860151915080858403016080860152506120c88282611fed565b91505073ffffffffffffffffffffffffffffffffffffffff60808501511660a08401528091505092915050565b5f8083601f840112612105575f80fd5b50813567ffffffffffffffff81111561211c575f80fd5b602083019150836020828501011115612133575f80fd5b9250929050565b5f805f6040848603121561214c575f80fd5b83359250602084013567ffffffffffffffff811115612169575f80fd5b612175868287016120f5565b9497909650939450505050565b5f805f805f8060608789031215612197575f80fd5b863567ffffffffffffffff808211156121ae575f80fd5b6121ba8a838b016120f5565b909850965060208901359150808211156121d2575f80fd5b6121de8a838b016120f5565b909650945060408901359150808211156121f6575f80fd5b5061220389828a016120f5565b979a9699509497509295939492505050565b5f8060208385031215612226575f80fd5b823567ffffffffffffffff8082111561223d575f80fd5b818501915085601f830112612250575f80fd5b81358181111561225e575f80fd5b8660208260051b8501011115612272575f80fd5b60209290920196919550909350505050565b5f60208083016020845280855180835260408601915060408160051b8701019250602087015f5b828110156122f7577fffffffffffffffffffffffffffffffffffffffffffffffffffffffffffffffc08886030184526122e5858351611fed565b945092850192908501906001016122ab565b5092979650505050505050565b602081525f611be26020830184611fed565b60a081525f61232860a0830188611fed565b828103602084015261233a8188611fed565b9050828103604084015261234e8187611fed565b905082810360608401526123628186611fed565b91505073ffffffffffffffffffffffffffffffffffffffff831660808301529695505050505050565b600181811c9082168061239f57607f821691505b6020821081036123d6577f4e487b71000000000000000000000000000000000000000000000000000000005f52602260045260245ffd5b50919050565b5f602082840312156123ec575f80fd5b8151611be281611f7c565b81835281816020850137505f602082840101525f60207fffffffffffffffffffffffffffffffffffffffffffffffffffffffffffffffe0601f840116840101905092915050565b606081525f6124506060830187611fed565b82810360208401526124638186886123f7565b905082810360408401526124778185611fed565b979650505050505050565b5f60208284031215612492575f80fd5b81518015158114611be2575f80fd5b838152604060208201525f611cc26040830184866123f7565b5f82516124cb818460208701611fcb565b9190910192915050565b7f4e487b71000000000000000000000000000000000000000000000000000000005f52601160045260245ffd5b8082018082111561040d5761040d6124d5565b602081525f6125286020830184866123f7565b949350505050565b7f4e487b71000000000000000000000000000000000000000000000000000000005f52604160045260245ffd5b5f6020828403121561256d575f80fd5b815167ffffffffffffffff80821115612584575f80fd5b818401915084601f830112612597575f80fd5b8151818111156125a9576125a9612530565b604051601f82017fffffffffffffffffffffffffffffffffffffffffffffffffffffffffffffffe0908116603f011681019083821181831017156125ef576125ef612530565b81604052828152876020848701011115612607575f80fd5b612477836020830160208801611fcb565b601f82111561051057805f5260205f20601f840160051c8101602085101561263d5750805b601f840160051c820191505b8181101561265c575f8155600101612649565b5050505050565b815167ffffffffffffffff81111561267d5761267d612530565b6126918161268b845461238b565b84612618565b602080601f8311600181146126e3575f84156126ad5750858301515b7fffffffffffffffffffffffffffffffffffffffffffffffffffffffffffffffff600386901b1c1916600185901b178555612777565b5f858152602081207fffffffffffffffffffffffffffffffffffffffffffffffffffffffffffffffe08616915b8281101561272f57888601518255948401946001909101908401612710565b508582101561276b57878501517fffffffffffffffffffffffffffffffffffffffffffffffffffffffffffffffff600388901b60f8161c191681555b505060018460011b0185555b505050505050565b60a081525f61279260a083018a8c6123f7565b82810360208401526127a581898b6123f7565b905082810360408401526127b98188611fed565b905082810360608401526127ce8186886123f7565b9150508260808301529998505050505050505050565b7f4e487b71000000000000000000000000000000000000000000000000000000005f52603260045260245ffd5b5f8083357fffffffffffffffffffffffffffffffffffffffffffffffffffffffffffffffe1843603018112612844575f80fd5b83018035915067ffffffffffffffff82111561285e575f80fd5b602001915036819003821315612133575f80fd5b828482375f8382015f8152835161288d818360208801611fcb565b019594505050505056fea26469706673582212208db016d115564c5317c19aecf116bf800903a6ae0121e754c3ce0ff7c43bf5af64736f6c63430008180033","linkReferences":{}},"methodIdentifiers":{"ADMIN_ROLE()":"75b238fc","DEFAULT_ADMIN_ROLE()":"a217fddf","fulfilSignatureRequest(uint256,bytes)":"5eab2b20","getPublicKey()":"2e334452","getPublicKeyBytes()":"acae9fee","getRequestInFlight(uint256)":"44880e1e","getRoleAdmin(bytes32)":"248a9ca3","grantRole(bytes32,address)":"2f2ff15d","hasRole(bytes32,address)":"91d14854","isInFlight(uint256)":"cd802c91","lastRequestID()":"47c03186","multicall(bytes[])":"ac9650d8","renounceRole(bytes32,address)":"36568abe","requestSignature(string,bytes,bytes)":"95b8d073","requestsInFlight(uint256)":"d5c2d4f5","revokeRole(bytes32,address)":"d547741f","signatureSchemeAddressProvider()":"e6b3ca71","supportsInterface(bytes4)":"01ffc9a7"},"id":69}